:020000040800F2
:1000000000280020891B0008551900085B1900080A
:1000100061190008671900086D1900080000000048
:10002000000000000000000000000000731900083C
:100030007F190008000000008B19000897190008BC
:10004000D11B0008D11B0008D11B0008D11B0008E0
:10005000D11B0008D11B0008D11B0008D11B0008D0
:10006000D11B0008D11B0008D11B0008D11B0008C0
:10007000D11B0008D11B0008D11B0008D11B0008B0
:10008000D11B0008D11B0008D11B0008D11B0008A0
:10009000D11B0008D11B0008D11B0008D11B000890
:1000A000D11B0008D11B0008D11B0008D11B000880
:1000B000A5190008D11B000800000000D11B000892
:1000C000D11B00080000000000000000D11B000848
:1000D00000000000D11B0008D11B00080000000038
:1000E000D11B0008D11B0008D11B00080000000034
:1000F0000000000000000000000000000000000000
:0C01000000000000000000005FF808F1A3
:10010C0010B5054C237833B9044B13B10448AFF345
:10011C0000800123237010BD8C0000200000000023
:10012C000032000808B5034B1BB103490348AFF379
:10013C00008008BD00000000900000200032000884
:10014C0080B483B000AF7860094A7B6852F82330E2
:10015C00012B06D1064A7B68002142F823100123AB
:10016C0000E0002318460C37BD4680BC704700BF2A
:10017C00A800002080B582B000AF00237B605BE05C
:10018C00314A7B6852F8232030497B6831F81330B0
:10019C001946104602F002F80346FB70FA782C4917
:1001AC007B6851F823309A421AD0FA7828497B6838
:1001BC0041F82320264A7B6852F8232025497B6886
:1001CC0041F82320234A7B6852F8232022497B687C
:1001DC0041F82320214A7B68052142F8231028E0AE
:1001EC001E4A7B6852F82330002B08DD1B4A7B68C3
:1001FC0052F823305A1E19497B6841F82320174ABC
:10020C007B6852F82330002B13D1154A7B6852F8C7
:10021C002320FB789A420CD0FA7811497B6841F87C
:10022C002320FB78002B04D10E4A7B68012142F875
:10023C0023107B6801337B607B68032BA0DD00BF40
:10024C0000BF0837BD4680BD500000206000002074
:10025C0030000020200000201000002000000020B2
:10026C0040000020A800002080B582B000AF78606C
:10027C007B68092B00F2808101A252F823F000BFA9
:10028C00B5020008FD020008450300088D030008B4
:10029C00D50300081D04000865040008AD0400081F
:1002AC00F50400083D05000800220121B54801F0C5
:1002BC008CFF00220221B34801F087FF00220421A9
:1002CC00B04801F082FF00220821AE4801F07DFF0A
:1002DC0000221021AB4801F078FF00222021A94810
:1002EC0001F073FF01224021A64801F06EFF44E1AA
:1002FC0001220121A34801F068FF00220221A1483C
:10030C0001F063FF002204219E4801F05EFF0122F0
:10031C0008219C4801F059FF01221021994801F055
:10032C0054FF01222021974801F04FFF0122402168
:10033C00944801F04AFF20E100220121914801F08C
:10034C0044FF002202218F4801F03FFF01220421CB
:10035C008C4801F03AFF002208218A4801F035FF51
:10036C0000221021874801F030FF0122202185480E
:10037C0001F02BFF00224021824801F026FFFCE017
:10038C00002201217F4801F020FF002202217D483C
:10039C0001F01BFF002204217A4801F016FF002215
:1003AC000821784801F011FF01221021754801F055
:1003BC000CFF01222021734801F007FF002240218D
:1003CC00704801F002FFD8E0012201216D4801F0D4
:1003DC00FCFE002202216B4801F0F7FE00220421F2
:1003EC00684801F0F2FE01220821664801F0EDFE9A
:1003FC0001221021634801F0E8FE0022202161480F
:10040C0001F0E3FE002240215E4801F0DEFEB4E084
:10041C00002201215B4801F0D8FE0122022159483B
:10042C0001F0D3FE00220421564801F0CEFE00223A
:10043C000821544801F0C9FE01221021514801F055
:10044C00C4FE002220214F4801F0BFFE00224021B3
:10045C004C4801F0BAFE90E000220121494801F01D
:10046C00B4FE01220221474801F0AFFE0022042114
:10047C00444801F0AAFE00220821424801F0A5FEE2
:10048C00002210213F4801F0A0FE002220213D480F
:10049C0001F09BFE002240213A4801F096FE6CE0F0
:1004AC0000220121374801F090FE0022022135483C
:1004BC0001F08BFE00220421324801F086FE01225D
:1004CC000821304801F081FE012210212D4801F055
:1004DC007CFE012220212B4801F077FE01224021D5
:1004EC00284801F072FE48E000220121254801F065
:1004FC006CFE00220221234801F067FE0022042139
:10050C00204801F062FE002208211E4801F05DFE29
:10051C00002210211B4801F058FE0022202119480E
:10052C0001F053FE00224021164801F04EFE24E05B
:10053C0000220121134801F048FE0022022111483B
:10054C0001F043FE002204210E4801F03EFE002281
:10055C0008210C4801F039FE01221021094801F054
:10056C0034FE00222021074801F02FFE00224021FA
:10057C00044801F02AFE00E000BF00BF0837BD466A
:10058C0080BD00BF000C014080B582B000AF786028
:10059C007B68092B00F2BC8101A252F823F000BF4A
:1005AC00D5050008290600087D060008D1060008BC
:1005BC002507000879070008CD0700082108000866
:1005CC0075080008C908000800228021D34801F0F2
:1005DC00FCFD00224FF48071D04801F0F6FD0022A2
:1005EC004FF40071CD4801F0F0FD00224FF4806112
:1005FC00CA4801F0EAFD00224FF40061C74801F03F
:10060C00E4FD00224FF48051C44801F0DEFD0122CC
:10061C004FF40051C14801F0D8FD7AE1012280214C
:10062C00BE4801F0D2FD00224FF48071BB4801F0AE
:10063C00CCFD00224FF40071B84801F0C6FD012238
:10064C004FF48061B54801F0C0FD01224FF4006108
:10065C00B24801F0BAFD01224FF48051AF4801F0CD
:10066C00B4FD01224FF40051AC4801F0AEFD50E155
:10067C0000228021A94801F0A8FD00224FF48071CE
:10068C00A64801F0A2FD01224FF40071A34801F02D
:10069C009CFD00224FF48061A04801F096FD0022E1
:1006AC004FF400619D4801F090FD01224FF4805100
:1006BC009A4801F08AFD00224FF40051974801F04E
:1006CC0084FD26E100228021944801F07EFD002269
:1006DC004FF48071914801F078FD00224FF40071C5
:1006EC008E4801F072FD00224FF480618B4801F0BE
:1006FC006CFD01224FF40061884801F066FD012277
:10070C004FF48051854801F060FD00224FF40051F8
:10071C00824801F05AFDFCE0012280217F4801F063
:10072C0054FD00224FF480717C4801F04EFD0022F4
:10073C004FF40071794801F048FD01224FF48061BB
:10074C00764801F042FD01224FF40061734801F03C
:10075C003CFD00224FF48051704801F036FD002220
:10076C004FF400516D4801F030FDD2E000228021A1
:10077C006A4801F02AFD01224FF48071674801F0AC
:10078C0024FD00224FF40071644801F01EFD00228C
:10079C004FF48061614801F018FD01224FF40061B3
:1007AC005E4801F012FD00224FF480515B4801F0CD
:1007BC000CFD00224FF40051584801F006FDA8E052
:1007CC0000228021554801F000FD01224FF4807178
:1007DC00524801F0FAFC00224FF400714F4801F02E
:1007EC00F4FC00224FF480614C4801F0EEFC002236
:1007FC004FF40061494801F0E8FC00224FF48051AD
:10080C00464801F0E2FC00224FF40051434801F04D
:10081C00DCFC7EE000228021404801F0D6FC002266
:10082C004FF480713D4801F0D0FC00224FF4007170
:10083C003A4801F0CAFC01224FF48061374801F0BC
:10084C00C4FC01224FF40061344801F0BEFC0122CB
:10085C004FF48051314801F0B8FC01224FF40051A3
:10086C002E4801F0B2FC54E0002280212B4801F00C
:10087C00ACFC00224FF48071284801F0A6FC002249
:10088C004FF40071254801F0A0FC00224FF4806168
:10089C00224801F09AFC00224FF400611F4801F03D
:1008AC0094FC00224FF480511C4801F08EFC002275
:1008BC004FF40051194801F088FC2AE000228021F5
:1008CC00164801F082FC00224FF48071134801F0AD
:1008DC007CFC00224FF40071104801F076FC0022E1
:1008EC004FF480610D4801F070FC01224FF400615F
:1008FC000A4801F06AFC00224FF48051074801F0CD
:10090C0064FC00224FF40051044801F05EFC00E04E
:10091C0000BF00BF0837BD4680BD00BF000C0140C2
:10092C0080B500AF3A4B1B68002B02D0012B35D0A1
:10093C006CE000224FF48051364801F046FC012255
:10094C004FF40051334801F040FC334B1B68334AE1
:10095C0082FB03129210DB17D31A1846FFF784FCA4
:10096C002D4B1A682D4B83FB02139910D317C91A00
:10097C000B469B000B445B00D11A0846FFF704FEA4
:10098C00032000F047FF0346012B3CD1322103200A
:10099C0000F028FF1E4B01221A6034E001224FF4B4
:1009AC0080511C4801F011FC00224FF400511948F1
:1009BC0001F00BFC1A4B1B68184A82FB03129210B5
:1009CC00DB17D31A1846FFF74FFC154B1A68134B5D
:1009DC0083FB02139910D317C91A0B469B000B44C7
:1009EC005B00D11A0846FFF7CFFD032000F012FF81
:1009FC000346012B09D13221032000F0F3FE044BF6
:100A0C0000221A6001E000BF00E000BF00BF80BD03
:100A1C00B800002000080140C00000206766666630
:100A2C00C400002080B500AF3C4B1B68052B12D1D5
:100A3C0000224FF480513A4801F0C7FB01224FF4D9
:100A4C000051374801F0C1FB0020FFF70DFC0520D9
:100A5C00FFF79AFD60E0334B1B68002B02D0012B93
:100A6C0022D059E000224FF480512D4801F0ADFB0B
:100A7C0001224FF400512A4801F0A7FB0020FFF798
:100A8C00F3FB264B1B681846FFF77EFD032000F096
:100A9C00C1FE0346012B3CD13221032000F0A2FE03
:100AAC00204B01221A6034E001224FF480511C4883
:100ABC0001F08BFB00224FF40051194801F085FB2B
:100ACC00194B1B68194A82FB03129210DB17D31ABD
:100ADC001846FFF7C9FB144B1A68144B83FB02131F
:100AEC009910D317C91A0B469B000B445B00D11A03
:100AFC000846FFF749FD032000F08CFE0346012B4E
:100B0C0009D13221032000F06DFE064B00221A6041
:100B1C0001E000BF00E000BF80BD00BF70000020FE
:100B2C0000080140B8000020BC0000206766666623
:100B3C0080B500AFA94B1B68012B40F04481A84B3A
:100B4C001B68013B032B00F2988001A252F823F0A2
:100B5C006D0B00089D0B0008EB0B0008390C00080E
:100B6C0000F036FF00F078FF00F054FF9C4B02229F
:100B7C001A609C4B1B689C4A82FB03129211DB1778
:100B8C00D31A9A4A13606421012000F02BFE7BE0FB
:100B9C0000F012FF00F060FF00F03CFF012000F0BD
:100BAC0039FE0346012B6AD1904B1B68013B8F4ADF
:100BBC0013606421012000F015FE8C4B1B68002B88
:100BCC005DDC874B03221A60894B1B68864A82FBCB
:100BDC0003129211DB17D31A844A13604FE000F012
:100BEC00F7FE00F02DFF00F015FF012000F012FEC3
:100BFC000346012B45D17D4B1B68013B7B4A13609F
:100C0C006421012000F0EEFD784B1B68002B38DCD2
:100C1C00734B04221A60774B1B68734A82FB0312D6
:100C2C009211DB17D31A714A13602AE000F0D0FE40
:100C3C0000F012FF00F0E2FE012000F0EBFD034695
:100C4C00012B20D1694B1B68013B684A136064215E
:100C5C00012000F0C7FD654B1B68002B13DC604BBB
:100C6C0002221A605F4B1B685F4A82FB03129211CF
:100C7C00DB17D31A5D4A136005E000BF04E000BF28
:100C8C0002E000BF00E000BF5B4B1B68013B032B85
:100C9C0000F29B8001A252F823F000BFB90C0008AF
:100CAC00E90C0008370D0008850D000800F0F6FE71
:100CBC0000F03CFF00F016FF4F4B03221A604C4B28
:100CCC001B68494A82FB03129211DB17D31A4B4A59
:100CDC0013606421022000F085FD7DE000F0D2FE5F
:100CEC0000F024FF00F0FEFE022000F093FD03460E
:100CFC00012B6CD1414B1B68013B404A13606421B2
:100D0C00022000F06FFD3D4B1B68002B5FD13A4B6E
:100D1C0003221A60364B1B68334A82FB0312921172
:100D2C00DB17D31A354A136051E000F0B7FE00F020
:100D3C00F1FE00F0D7FE022000F06CFD0346012B03
:100D4C0047D12E4B1B68013B2C4A136064210220B7
:100D5C0000F048FD294B1B68002B3AD1264B04228E
:100D6C001A60244B1B68204A82FB03129211DB177A
:100D7C00D31A224A13602CE000F090FE00F0D6FE4D
:100D8C0000F0A4FE022000F045FD0346012B22D109
:100D9C001A4B1B68013B194A13606421022000F0B6
:100DAC0021FD164B1B68002B15D1134B02221A6028
:100DBC000C4B1B680C4A82FB03129211DB17D31AE3
:100DCC000E4A136007E000BF06E000BF04E000BF5E
:100DDC0002E000BF00E000BF80BD00BF700000203B
:100DEC006800002074000020D34D6210C000002069
:100DFC007C000020780000206C000020C400002043
:100E0C0080B500AFB24B1B68013B042B00F2508144
:100E1C0001A252F823F000BF390E0008890E000819
:100E2C00370F0008E30F000893100008FFF778FD58
:100E3C000020FFF785F90346012B0FD13221042046
:100E4C0000F0D0FCA24B02221A60A24B01221A60C5
:100E5C0000F084FE3221032000F0C4FC0320FFF7D5
:100E6C006FF90346012B40F02781994B05221A603C
:100E7C00994B00221A6000F071FE1DE1042000F075
:100E8C00C9FC0346012B07D13221042000F0AAFC37
:100E9C0000F0AAFD00F00EFE0120FFF751F9034609
:100EAC00012B0BD18B4B1B6801338A4A1360894B86
:100EBC001B68632B02DD874B00221A600220FFF7B0
:100ECC003FF90346012B0AD1824B1B684FF47A720F
:100EDC0002FB03F3814A13607E4B01221A60FFF779
:100EEC00A1FD0020FFF72CF90346012B0DD1322177
:100EFC00042000F077FC764B03221A60754B01221C
:100F0C001A6000F065FD00F0C9FD0320FFF718F929
:100F1C000346012B40F0D2806D4B05221A606E4BBC
:100F2C0000221A6000F01AFEC8E0042000F072FCE7
:100F3C000346012B07D13221042000F053FC00F0B2
:100F4C0075FD00F0DBFD0120FFF7FAF80346012BDD
:100F5C000BD1604B1B6801335E4A13605D4B1B6801
:100F6C00632B02DD5B4B00221A600220FFF7E8F8CE
:100F7C000346012B0AD1574B1B684FF47A7202FBC4
:100F8C0003F3574A1360534B01221A60FFF74AFDD3
:100F9C000020FFF7D5F80346012B0DD13221042098
:100FAC0000F020FC4A4B04221A604A4B01221A60C2
:100FBC0000F030FD00F096FD0320FFF7C1F803466A
:100FCC00012B7DD1424B05221A60434B00221A6043
:100FDC0000F0C4FD74E0042000F01CFC0346012B5F
:100FEC0007D13221042000F0FDFB00F041FD00F0A0
:100FFC00A9FD0120FFF7A4F80346012B0BD1354BBB
:10100C001B680133334A1360324B1B68632B02DDC0
:10101C00304B00221A600220FFF792F80346012B96
:10102C000AD12C4B1B684FF47A7202FB03F32D4A46
:10103C001360284B01221A60FFF7F4FC0020FFF725
:10104C007FF80346012B0FD1214B01221A60214B53
:10105C0001221A60244B01221A60244B01221A60CF
:10106C0000F0FAFC00F062FD0320FFF769F803467C
:10107C00012B27D1164B05221A60174B00221A6040
:10108C0000F06CFD1EE00320FFF75AF80346012B1D
:10109C001AD10F4B01221A600F4B00221A60124B0F
:1010AC0001221A60114B01221A6000F057FD0BE06F
:1010BC00074B01221A6008E000BF06E000BF04E005
:1010CC0000BF02E000BF00E000BF00BF80BD00BF5A
:1010DC0070000020BC000020C8000020740000201C
:1010EC00780000207C000020680000206C000020AC
:1010FC0080B500AF3C4B1B68052B6DD13B4B1B687F
:10110C00022B4DD0022B63DC002B02D0012B2FD0F5
:10111C005EE000F023FDFFF785FC0120FFF710F8DF
:10112C000346012B0ED1314B01221A6000F044FC16
:10113C0000F092FC00F06EFC00F0B0FC00F0EAFC59
:10114C0000F0D0FC0220FEF7FBFF0346012B45D13B
:10115C00264B02221A6000F03BFC00F071FC00F000
:10116C0059FC00F08FFC00F0E1FC00F0BBFC35E01A
:10117C00FFF758FC0220FEF7E3FF0346012B2FD1AB
:10118C001A4B02221A6000F023FC00F059FC00F00C
:10119C0041FC00F077FC00F0C9FC00F0A3FC1FE060
:1011AC00FFF740FC0120FEF7CBFF0346012B19D1C2
:1011BC000E4B01221A6000F0FFFB00F04DFC00F01A
:1011CC0029FC00F06BFC00F0A5FC00F08BFC09E0A6
:1011DC00064B00221A6006E000BF04E000BF02E0EC
:1011EC0000BF00E000BF80BD70000020C8000020E0
:1011FC0080B500AF2021024800F0FFFF00BF80BD8A
:10120C000008014080B500AF00F0DEFC00F056F89D
:10121C0000F0DCF800F08EF81E4801F033FC00F012
:10122C0015FA4FF47A7200211B4800F01FFA322194
:10123C00032000F0D7FA0A220021184800F016FA11
:10124C000A220021164800F011FA164B01221A60EE
:10125C00154B01221A6000224FF48051134800F004
:10126C00B4FF00224FF40051104800F0AEFF64228E
:10127C0000210F4800F0FAF9642200210D4800F01B
:10128C00F5F9642200210C4800F0F0F900F090FA16
:10129C00FCE700BFB4020020FD110008491800084B
:1012AC0081010008680000206C000020000801404B
:1012BC003D0B00080D0E0008FD10000880B590B025
:1012CC0000AF07F1180328220021184601F08AFF0D
:1012DC003B1D00221A605A609A60DA601A61022380
:1012EC00BB610123BB621023FB6200237B6307F10C
:1012FC001803184600F09AFF0346002B01D000F0AB
:10130C00D3F80F237B600023BB600023FB6000231A
:10131C003B6100237B613B1D0021184601F006FA5E
:10132C000346002B01D000F0BFF800BF4037BD468C
:10133C0080BD000080B586B000AF07F10803002225
:10134C001A605A609A60DA603B4600221A605A6052
:10135C001D4B4FF080421A601B4B41F63F725A6096
:10136C00194B00229A60184B0922DA60164B0022A6
:10137C001A61154B00229A61134801F033FB0346A6
:10138C00002B01D000F090F84FF48053BB6007F1B4
:10139C00080319460C4801F0B1FC0346002B01D0A0
:1013AC0000F082F800233B6000237B603B4619462B
:1013BC00054801F089FE0346002B01D000F074F8BB
:1013CC0000BF1837BD4680BDB402002080B586B082
:1013DC0000AF07F1080300221A605A609A60DA60C5
:1013EC00294B9B69284A43F004039361264B9B6964
:1013FC0003F004037B607B68234B9B69224A43F018
:10140C0008039361204B9B6903F008033B603B6826
:10141C00002243F63C611D4800F0D7FE002243F643
:10142C00FF711B4800F0D1FE43F63C63BB60012307
:10143C00FB6000233B6102237B6107F10803194623
:10144C00124800F031FD44F2C013BB600023FB6076
:10145C0001233B6107F1080319460C4800F024FDF9
:10146C0043F6FF73BB600123FB6000233B61022347
:10147C007B6107F108031946054800F015FD00BF14
:10148C001837BD4680BD00BF001002400008014067
:10149C00000C014080B582B000AF786000F058F9C4
:1014AC0000BF0837BD4680BD80B400AF72B600BF28
:1014BC00FEE7B0B489B000AF786039607B6807F1A3
:1014CC0008041D460FCD0FC495E8030084E8030003
:1014DC007A683B6814461D460FCD0FC495E803008F
:1014EC0084E803003B681D4607F108040FCC0FC5C8
:1014FC0094E8030085E8030000BF2437BD46B0BC68
:10150C007047000080B584B000AF78602CE07B6839
:10151C00013BDA0F13445B10FB601849FA68134661
:10152C005B001344DB000B441433196813487A68CE
:10153C0013465B001344DB00034414331B689942CD
:10154C0016D9FA6813465B001344DB000B4A981853
:10155C007A6813465B001344DB00084A13441946AF
:10156C00FFF7A7FFFB687B607B68002BCFDC00E0FC
:10157C0000BF00BF1037BD4680BD00BFCC000020AF
:10158C0080B586B000AF78607B687B617B685B0060
:10159C0001333B617B6801335B00FB603A69294B8B
:1015AC001B689A4215D228493A6913465B001344CA
:1015BC00DB000B441433196823487A6913465B002B
:1015CC001344DB00034414331B68994201D23B697A
:1015DC007B61FA681B4B1B689A4215D21A49FA6850
:1015EC0013465B001344DB000B4414331968164894
:1015FC007A6913465B001344DB00034414331B6805
:10160C00994201D2FB687B617A697B689A4213D05C
:10161C007A6813465B001344DB000B4A98187A690E
:10162C0013465B001344DB00074A13441946FFF7CB
:10163C0040FF7B697B60A9E700BF00BF1837BD4640
:10164C0080BD00BFAC020020CC00002080B400AFF5
:10165C00044B00221A60044B00221A6000BFBD46E6
:10166C0080BC7047AC020020B0020020B0B58AB03C
:10167C0000AFF860B9607A601D4B1B68132B33D830
:10168C00FB683B61BB681B4AA2FB0323DB087B6145
:10169C007B68184AA2FB0323DB08BB610023FB61B8
:1016AC00134B1B683B627A69134B1B6813447B62B8
:1016BC000F4B1A68114913465B001344DB000B44B3
:1016CC001D4607F110040FCC0FC594E8030085E804
:1016DC000300074B1B681846FFF714FF044B1B68ED
:1016EC000133034A136000E000BF2837BD46B0BD8C
:1016FC00AC020020CDCCCCCCB0020020CC00002021
:10170C00B0B500AF104B1B68002B1AD00E4B1B68EA
:10171C005A1E0E480D4913465B001344DB000B4464
:10172C0004461D460FCD0FC495E8030084E8030062
:10173C00054B1B68013B044A13600020FFF720FF98
:10174C0000E000BFB0BD00BFAC020020CC00002008
:10175C0080B500AF134B1B680133124A1360124B58
:10176C001B68002B1CD0114B5A690E4B1B689A42FC
:10177C0017D80E4BDB6801330C4AD3600B4B9B68BC
:10178C00002B0AD0094B9A68064B1B681344074A76
:10179C0053610020FFF7F4FE03E0FFF7B1FF00E018
:1017AC0000BF80BDB0020020AC020020CC000020A5
:1017BC0080B500AF094B1B68002B0CD0084BDB68C5
:1017CC00002B09D0064B1B689847054BDB68013B87
:1017DC00034AD36000E000BF80BD00BFAC02002014
:1017EC00CC00002080B483B000AF7860396007492A
:1017FC007B683A6841F82320054A7B68002142F84F
:10180C00231000BF0C37BD4680BC7047FC02002083
:10181C004C03002080B483B000AF7860064A7B682C
:10182C0052F82330012B01D1012300E0002318468C
:10183C000C37BD4680BC70474C03002080B483B08D
:10184C0000AF00237B601CE0124A7B6852F8233007
:10185C00002B13DD0F4A7B6852F823305A1E0D49BA
:10186C007B6841F823200B4A7B6852F82330002B0D
:10187C0004DC094A7B68012142F823107B680133A0
:10188C007B607B68132BDFDD00BF00BF0C37BD46D0
:10189C0080BC7047FC0200204C03002080B485B053
:1018AC0000AF154B9B69144A43F001039361124B33
:1018BC009B6903F00103BB60BB680F4BDB690E4AED
:1018CC0043F08053D3610C4BDB6903F080537B6096
:1018DC007B680A4B5B68FB60FB6823F0E063FB6092
:1018EC00FB6843F08063FB60044AFB68536000BFF5
:1018FC001437BD4680BC7047001002400000014008
:10190C0080B584B000AF78607B681B68B3F1804F02
:10191C0013D10C4BDB690B4A43F00103D361094B28
:10192C00DB6903F00103FB60FB68002200211C2033
:10193C0000F083FA1C2000F09CFA00BF1037BD4663
:10194C0080BD00BF0010024080B400AFFEE780B441
:10195C0000AFFEE780B400AFFEE780B400AFFEE757
:10196C0080B400AFFEE780B400AF00BFBD4680BCC2
:10197C00704780B400AF00BFBD4680BC704780B4D8
:10198C0000AF00BFBD4680BC704780B500AF00F013
:10199C0061F900BF80BD000080B500AF024801F0C6
:1019AC00BDF800BF80BD00BFB402002080B400AF02
:1019BC0000BFBD4680BC704780B500AF002204213B
:1019CC00024800F002FC00BF80BD00BF00080140CF
:1019DC0080B500AF01220421024800F0F6FB00BFE5
:1019EC0080BD00BF0008014080B500AF0421024853
:1019FC0000F003FC00BF80BD0008014080B500AFC3
:101A0C0000220821024800F0E0FB00BF80BD00BFAF
:101A1C000008014080B500AF01220821024800F007
:101A2C00D4FB00BF80BD00BF0008014080B500AFF3
:101A3C000821024800F0E1FB00BF80BD0008014016
:101A4C0080B500AF00221021024800F0BEFB00BFA1
:101A5C0080BD00BF0008014080B500AF01221021FD
:101A6C00024800F0B2FB00BF80BD00BF000801407F
:101A7C0080B500AF1021024800F0BFFB00BF80BD55
:101A8C000008014080B500AF00224FF400710248FD
:101A9C0000F09BFB00BF80BD0008014080B500AF8B
:101AAC0001224FF40071024800F08FFB00BF80BD93
:101ABC000008014080B500AF4FF40071024800F0FF
:101ACC009CFB00BF80BD00BF0008014080B500AF8B
:101ADC0000224FF48061024800F077FB00BF80BD0C
:101AEC000008014080B500AF01224FF4806102482C
:101AFC0000F06BFB00BF80BD0008014080B500AF5B
:101B0C004FF48061024800F078FB00BF80BD00BF3D
:101B1C000008014080B500AF00224FF4006102487C
:101B2C0000F053FB00BF80BD0008014080B500AF42
:101B3C0001224FF40061024800F047FB00BF80BD5A
:101B4C000008014080B500AF4FF40061024800F07E
:101B5C0054FB00BF80BD00BF0008014080B500AF42
:101B6C00FFF77AFFFFF734FFFFF754FFFFF7DEFFB5
:101B7C00FFF794FFFFF7B6FF00BF80BDFFF716FF1E
:101B8C000B480C490C4A002302E0D458C4500433CF
:101B9C00C4188C42F9D3094A094C002301E01360A4
:101BAC000432A242FBD301F0F9FAFFF72BFB70478A
:101BBC00000000208C000020443200088C00002023
:101BCC00A0030020FEE7000080B500AF084B1B68A7
:101BDC00074A43F010031360032000F023F90F2091
:101BEC0000F008F8FFF75AFE0023184680BD00BF2E
:101BFC000020024080B582B000AF7860124B1A68AA
:101C0C00124B1B7819464FF47A73B3FBF1F3B2FB0A
:101C1C00F3F3184600F03BF90346002B01D00123E7
:101C2C000EE07B680F2B0AD8002279684FF0FF304A
:101C3C0000F003F9064A7B681360002300E00123DF
:101C4C0018460837BD4680BD800000208800002063
:101C5C008400002080B400AF054B1B781A46054B5E
:101C6C001B681344034A136000BFBD4680BC704719
:101C7C00880000209C03002080B400AF024B1B683E
:101C8C001846BD4680BC70479C03002080B485B0CC
:101C9C0000AF78607B6803F00703FB600C4BDB68DC
:101CAC00BB60BA684FF6FF031340BB60FB681A02B7
:101CBC00BB68134343F0BF6343F40033BB60044A77
:101CCC00BB68D36000BF1437BD4680BC704700BFF3
:101CDC0000ED00E080B400AF044BDB681B0A03F09E
:101CEC0007031846BD4680BC704700BF00ED00E0FE
:101CFC0080B483B000AF0346FB7197F90730002B1B
:101D0C000BDBFB7903F01F02064997F907305B09DF
:101D1C00012000FA02F241F8232000BF0C37BD4627
:101D2C0080BC704700E100E080B483B000AF034694
:101D3C003960FB7197F90730002B0ADB3B68DAB28C
:101D4C000C4997F907301201D2B20B4483F80023E7
:101D5C000AE03B68DAB20849FB7903F00F03043B55
:101D6C001201D2B20B441A7600BF0C37BD4680BCB0
:101D7C00704700BF00E100E000ED00E080B489B0E6
:101D8C0000AFF860B9607A60FB6803F00703FB6191
:101D9C00FB69C3F10703042B28BF0423BB61FB6958
:101DAC000433062B02D9FB69033B00E000237B6163
:101DBC004FF0FF32BB6902FA03F3DA43BB681A40F7
:101DCC007B699A404FF0FF317B6901FA03F3D943E9
:101DDC007B680B40134318462437BD4680BC7047C4
:101DEC0080B582B000AF78607B68013BB3F1807F37
:101DFC0001D301230FE00A4A7B68013B53600F219A
:101E0C004FF0FF30FFF790FF054B00229A60044B18
:101E1C0007221A60002318460837BD4680BD00BF54
:101E2C0010E000E080B582B000AF78607868FFF712
:101E3C002DFF00BF0837BD4680BD80B586B000AF12
:101E4C000346B9607A60FB7300237B61FFF742FFA6
:101E5C0078617A68B9687869FFF790FF024697F95C
:101E6C000F3011461846FFF75FFF00BF1837BD460D
:101E7C0080BD80B582B000AF0346FB7197F9073087
:101E8C001846FFF735FF00BF0837BD4680BD80B54B
:101E9C0082B000AF78607868FFF7A2FF034618465F
:101EAC000837BD4680BD000080B48BB000AF7860B1
:101EBC00396000237B6200233B6248E101227B6A8C
:101ECC0002FA03F3FB613B681B68FA691340BB61C0
:101EDC00BA69FB699A4240F037813B685B68A34A58
:101EEC0093425ED0A14A934275D8A14A934258D0EE
:101EFC009F4A93426FD89F4A934252D09D4A934235
:101F0C0069D89D4A93424CD09B4A934263D89B4AD2
:101F1C00934246D0994A93425DD8122B2AD8122B61
:101F2C0059D801A252F823F0AF1F0008891F0008EE
:101F3C009B1F0008DD1F0008E31F0008E31F0008BB
:101F4C00E31F0008E31F0008E31F0008E31F00085D
:101F5C00E31F0008E31F0008E31F0008E31F00084D
:101F6C00E31F0008E31F0008E31F0008911F00088F
:101F7C00A51F0008824A934213D02CE03B68DB6813
:101F8C003B6229E03B68DB6804333B6224E03B683E
:101F9C00DB6808333B621FE03B68DB680C333B6259
:101FAC001AE03B689B68002B02D104233B6213E0D0
:101FBC003B689B68012B05D108233B627B68FA695F
:101FCC001A6109E008233B627B68FA695A6103E0F5
:101FDC0000233B6200E000BFBB69FF2B01D87B688C
:101FEC0001E07B6804337B61BB69FF2B02D87B6A01
:101FFC009B0002E07B6A083B9B003B617B691A6893
:10200C000F213B6901FA03F3DB431A40396A3B6940
:10201C0001FA03F31A437B691A603B685B6803F0AF
:10202C008053002B00F09080564B9B69554A43F02F
:10203C0001039361534B9B6903F00103BB60BB68C5
:10204C00514A7B6A9B08023352F82330FB607B6A4F
:10205C0003F003039B000F2202FA03F3DB43FA683D
:10206C001340FB607B68494A93420DD07B68484A19
:10207C00934207D07B68474A934201D1022304E084
:10208C00032302E0012300E000237A6A02F003023A
:10209C0092009340FA681343FB603B497B6A9B08B0
:1020AC000233FA6841F823203B685B6803F4801321
:1020BC00002B06D0384B9A683749BB6913438B60A9
:1020CC0006E0354B9A68BB69DB43334913408B60A0
:1020DC003B685B6803F40013002B06D02E4BDA68C8
:1020EC002D49BB691343CB6006E02B4BDA68BB6907
:1020FC00DB4329491340CB603B685B6803F4003336
:10210C00002B06D0244B5A682349BB6913434B6000
:10211C0006E0214B5A68BB69DB431F4913404B60F7
:10212C003B685B6803F48033002B06D01A4B1A68AB
:10213C001949BB6913430B6006E0174B1A68BB695E
:10214C00DB43154913400B607B6A01337B623B68B0
:10215C001A687B6A22FA03F3002B7FF4AFAE00BF40
:10216C0000BF2C37BD4680BC704700BF000032104A
:10217C00000031100000221000002110000012108D
:10218C000000111000100240000001400008014046
:10219C00000C0140001001400004014080B485B0E7
:1021AC0000AF78600B467B807B689A687B88134015
:1021BC00002B02D00123FB7301E00023FB73FB7B9C
:1021CC0018461437BD4680BC704780B483B000AF4E
:1021DC0078600B467B8013467B707B78002B03D09A
:1021EC007A887B681A6103E07B881A047B681A6121
:1021FC0000BF0C37BD4680BC704780B485B000AFC3
:10220C0078600B467B807B68DB68FB607A88FB68B8
:10221C0013401A04FB68D9437B880B401A437B6834
:10222C001A6100BF1437BD4680BC704780B586B0BC
:10223C0000AF78607B68002B01D101236CE27B68D6
:10224C001B6803F00103002B00F08780924B5B6846
:10225C0003F00C03042B0CD08F4B5B6803F00C03C6
:10226C00082B12D18C4B5B6803F48033B3F5803FA1
:10227C000BD1894B1B6803F40033002B6CD07B68AB
:10228C005B68002B68D1012346E27B685B68B3F581
:10229C00803F06D1804B1B687F4A43F48033136028
:1022AC002EE07B685B68002B0CD17B4B1B687A4A59
:1022BC0023F480331360784B1B68774A23F4802314
:1022CC0013601DE07B685B68B3F5A02F0CD1724BDB
:1022DC001B68714A43F4802313606F4B1B686E4A72
:1022EC0043F4803313600BE06B4B1B686A4A23F496
:1022FC0080331360684B1B68674A23F48023136098
:10230C007B685B68002B13D0FFF7B6FC386108E0E4
:10231C00FFF7B2FC02463B69D31A642B01D90323A5
:10232C00FAE15D4B1B6803F40033002BF0D014E092
:10233C00FFF7A2FC386108E0FFF79EFC02463B6900
:10234C00D31A642B01D90323E6E1534B1B6803F426
:10235C000033002BF0D100E000BF7B681B6803F05A
:10236C000203002B63D04C4B5B6803F00C03002B77
:10237C000BD0494B5B6803F00C03082B1CD1464B6C
:10238C005B6803F48033002B16D1434B1B6803F0BE
:10239C000203002B05D07B681B69012B01D00123A4
:1023AC00BAE13D4B1B6823F0F8027B685B69DB00EC
:1023BC00394913430B603AE07B681B69002B20D032
:1023CC00364B01221A60FFF757FC386108E0FFF723
:1023DC0053FC02463B69D31A022B01D903239BE120
:1023EC002D4B1B6803F00203002BF0D02A4B1B680B
:1023FC0023F0F8027B685B69DB00274913430B6011
:10240C0015E0264B00221A60FFF736FC386108E015
:10241C00FFF732FC02463B69D31A022B01D9032386
:10242C007AE11D4B1B6803F00203002BF0D17B6893
:10243C001B6803F00803002B3AD07B689B69002BC8
:10244C0019D0174B01221A60FFF716FC386108E00F
:10245C00FFF712FC02463B69D31A022B01D9032366
:10246C005AE10D4B5B6A03F00203002BF0D0012004
:10247C0000F09AFA1CE00A4B00221A60FFF7FCFBF2
:10248C0038610FE0FFF7F8FB02463B69D31A022BC9
:10249C0008D9032340E100BF001002400000424273
:1024AC00800442429E4B5B6A03F00203002BE9D18D
:1024BC007B681B6803F00403002B00F0A68000234C
:1024CC00FB75974BDB6903F08053002B0DD1944BBC
:1024DC00DB69934A43F08053D361914BDB6903F082
:1024EC008053BB60BB680123FB758E4B1B6803F4E8
:1024FC008073002B18D18B4B1B688A4A43F4807372
:10250C001360FFF7B9FB386108E0FFF7B5FB024633
:10251C003B69D31A642B01D90323FDE0814B1B6863
:10252C0003F48073002BF0D07B68DB68012B06D1A1
:10253C007B4B1B6A7A4A43F0010313622DE07B68E4
:10254C00DB68002B0CD1764B1B6A754A23F0010318
:10255C001362734B1B6A724A23F0040313621CE070
:10256C007B68DB68052B0CD16D4B1B6A6C4A43F006
:10257C00040313626A4B1B6A694A43F0010313623A
:10258C000BE0674B1B6A664A23F001031362644B32
:10259C001B6A634A23F0040313627B68DB68002B1D
:1025AC0015D0FFF769FB38610AE0FFF765FB0246BF
:1025BC003B69D31A41F28832934201D90323ABE031
:1025CC00574B1B6A03F00203002BEED014E0FFF70D
:1025DC0053FB38610AE0FFF74FFB02463B69D31A05
:1025EC0041F28832934201D9032395E04C4B1B6A8C
:1025FC0003F00203002BEED1FB7D012B05D1484BE0
:10260C00DB69474A23F08053D3617B68DB69002B7D
:10261C0000F08180424B5B6803F00C03082B61D007
:10262C007B68DB69022B46D13F4B00221A60FFF717
:10263C0023FB386108E0FFF71FFB02463B69D31A06
:10264C00022B01D9032367E0354B1B6803F00073A1
:10265C00002BF0D17B681B6AB3F5803F08D1304B5F
:10266C005B6823F400327B689B682D4913434B60F5
:10267C002B4B5B6823F474127B68196A7B685B6A6A
:10268C000B43274913434B60274B01221A60FFF77A
:10269C00F3FA386108E0FFF7EFFA02463B69D31A08
:1026AC00022B01D9032337E01D4B1B6803F0007389
:1026BC00002BF0D02FE01C4B00221A60FFF7DCFA45
:1026CC00386108E0FFF7D8FA02463B69D31A022BAF
:1026DC0001D9032320E0124B1B6803F00073002B7D
:1026EC00F0D118E07B68DB69012B01D1012313E0E9
:1026FC000B4B5B68FB60FB6803F480327B681B6AE6
:10270C009A4206D1FB6803F470127B685B6A9A42AA
:10271C0001D0012300E0002318461837BD4680BDC8
:10272C0000100240007000406000424280B584B04E
:10273C0000AF786039607B68002B01D10123D0E0B9
:10274C006A4B1B6803F007033A689A4210D9674B2F
:10275C001B6823F0070265493B6813430B60634B0E
:10276C001B6803F007033A689A4201D00123B8E0D2
:10277C007B681B6803F00203002B20D07B681B686E
:10278C0003F00403002B05D0594B5B68584A43F403
:10279C00E06353607B681B6803F00803002B05D0D3
:1027AC00534B5B68524A43F460535360504B5B6825
:1027BC0023F0F0027B689B684D4913434B607B68A8
:1027CC001B6803F00103002B40D07B685B68012B76
:1027DC0007D1474B1B6803F40033002B15D10123A1
:1027EC007FE07B685B68022B07D1414B1B6803F0D1
:1027FC000073002B09D1012373E03D4B1B6803F0E0
:10280C000203002B01D101236BE0394B5B6823F0F1
:10281C0003027B685B68364913434B60FFF72CFA65
:10282C00F8600AE0FFF728FA0246FB68D31A41F277
:10283C008832934201D9032353E02D4B5B6803F09C
:10284C000C027B685B689B009A42EBD1274B1B68A0
:10285C0003F007033A689A4210D2244B1B6823F00A
:10286C00070222493B6813430B60204B1B6803F0A3
:10287C0007033A689A4201D0012332E07B681B6857
:10288C0003F00403002B08D0194B5B6823F4E062BF
:10289C007B68DB68164913434B607B681B6803F04D
:1028AC000803002B09D0124B5B6823F460527B6841
:1028BC001B69DB000E4913434B6000F021F8024604
:1028CC000B4B5B681B0903F00F030A49CB5C22FA24
:1028DC0003F3094A1360094B1B681846FFF78AF982
:1028EC00002318461037BD4680BD00BF00200240B3
:1028FC0000100240183200088000002084000020E4
:10290C0080B487B000AF0023FB600023BB600023C2
:10291C007B6100237B6000233B611E4B5B68FB608B
:10292C00FB6803F00C03042B02D0082B03D027E028
:10293C00194B3B6127E0FB689B0C03F00F03174A14
:10294C00D35C7B60FB6803F48033002B10D0114BFD
:10295C005B685B0C03F00103114AD35CBB607B68C2
:10296C000D4A02FB03F2BB68B2FBF3F37B6104E09C
:10297C007B680C4A02FB03F37B617B693B6102E0E1
:10298C00054B3B6100BF3B6918461C37BD4680BCFC
:10299C00704700BF0010024000127A002832000875
:1029AC003832000800093D0080B485B000AF786073
:1029BC000A4B1B680A4AA2FB03235B0A7A6802FBD8
:1029CC0003F3FB6000BFFB685A1EFA60002BF9D1C1
:1029DC0000BF00BF1437BD4680BC7047800000208C
:1029EC00D34D621080B582B000AF78607B68002B4D
:1029FC0001D1012341E07B6893F83D30DBB2002B21
:102A0C0006D17B68002283F83C207868FEF778FFBB
:102A1C007B68022283F83D207B681A687B6804334C
:102A2C001946104600F056FA7B68012283F84620BE
:102A3C007B68012283F83E207B68012283F83F20CB
:102A4C007B68012283F840207B68012283F84120B7
:102A5C007B68012283F842207B68012283F84320A3
:102A6C007B68012283F844207B68012283F845208F
:102A7C007B68012283F83D20002318460837BD46A9
:102A8C0080BD000080B485B000AF78607B6893F89F
:102A9C003D30DBB2012B01D0012335E07B680222F3
:102AAC0083F83D207B681B68DA687B681B6842F002
:102ABC000102DA607B681B68164A934209D07B6876
:102ACC001B68B3F1804F04D07B681B68124A934299
:102ADC0011D17B681B689B6803F00703FB60FB68E4
:102AEC00062B10D07B681B681A687B681B6842F049
:102AFC0001021A6007E07B681B681A687B681B6818
:102B0C0042F001021A60002318461437BD4680BCFF
:102B1C00704700BF002C01400004004080B584B019
:102B2C0000AF78607B681B68DB68FB607B681B68A8
:102B3C001B69BB60BB6803F00203002B20D0FB6851
:102B4C0003F00203002B1BD07B681B686FF00202A2
:102B5C001A617B6801221A777B681B689B6903F0FA
:102B6C000303002B03D0786800F098F905E078682F
:102B7C0000F08BF9786800F09AF97B6800221A77DC
:102B8C00BB6803F00403002B20D0FB6803F00403A4
:102B9C00002B1BD07B681B686FF004021A617B68EA
:102BAC0002221A777B681B689B6903F44073002B25
:102BBC0003D0786800F072F905E0786800F065F9E8
:102BCC00786800F074F97B6800221A77BB6803F010
:102BDC000803002B20D0FB6803F00803002B1BD04C
:102BEC007B681B686FF008021A617B6804221A77F5
:102BFC007B681B68DB6903F00303002B03D0786848
:102C0C0000F04CF905E0786800F03FF9786800F0C6
:102C1C004EF97B6800221A77BB6803F01003002B77
:102C2C0020D0FB6803F01003002B1BD07B681B68C3
:102C3C006FF010021A617B6808221A777B681B6898
:102C4C00DB6903F44073002B03D0786800F026F99D
:102C5C0005E0786800F019F9786800F028F97B68CD
:102C6C0000221A77BB6803F00103002B0CD0FB6821
:102C7C0003F00103002B07D07B681B686FF0010287
:102C8C001A617868FEF706FCBB6803F08003002B22
:102C9C000CD0FB6803F08003002B07D07B681B680B
:102CAC006FF080021A61786800F06FFABB6803F06D
:102CBC004003002B0CD0FB6803F04003002B07D023
:102CCC007B681B686FF040021A61786800F0F8F8B6
:102CDC00BB6803F02003002B0CD0FB6803F020032F
:102CEC00002B07D07B681B686FF020021A61786894
:102CFC0000F042FA00BF1037BD4680BD80B584B0ED
:102D0C0000AF786039600023FB737B6893F83C302C
:102D1C00012B01D10223B4E07B68012283F83C2013
:102D2C007B68022283F83D207B681B689B68BB6034
:102D3C00BB6823F07703BB60BB6823F47F43BB60A5
:102D4C007B681B68BA689A603B681B68B3F5005FC8
:102D5C003ED0B3F5005F00F28780B3F5805F00F0E2
:102D6C008680B3F5805F7FD8702B1AD0702B7BD800
:102D7C00602B50D0602B77D8502B3CD0502B73D875
:102D8C00402B58D0402B6FD8302B64D0302B6BD8C5
:102D9C00202B60D0202B67D8002B5CD0102B5AD066
:102DAC0062E07B6818683B6899683B685A683B68C6
:102DBC00DB6800F06AF97B681B689B68BB60BB68CA
:102DCC0043F07703BB607B681B68BA689A604FE07E
:102DDC007B6818683B6899683B685A683B68DB6895
:102DEC0000F053F97B681B689A687B681B6842F497
:102DFC0080429A603CE07B6818683B6859683B6885
:102E0C00DB681A4600F0CAF87B681B68502118462C
:102E1C0000F021F92CE07B6818683B6859683B6826
:102E2C00DB681A4600F0E8F87B681B6860211846DE
:102E3C0000F011F91CE07B6818683B6859683B6826
:102E4C00DB681A4600F0AAF87B681B68402118461C
:102E5C0000F001F90CE07B681A683B681B681946A6
:102E6C00104600F0F8F803E00123FB7300E000BF0C
:102E7C007B68012283F83D207B68002283F83C208C
:102E8C00FB7B18461037BD4680BD80B483B000AFC5
:102E9C00786000BF0C37BD4680BC704780B483B0EF
:102EAC0000AF786000BF0C37BD4680BC704780B463
:102EBC0083B000AF786000BF0C37BD4680BC704754
:102ECC0080B483B000AF786000BF0C37BD4680BCC7
:102EDC007047000080B485B000AF786039607B68C3
:102EEC001B68FB607B682B4A934207D07B68B3F16D
:102EFC00804F03D07B68284A934208D1FB6823F0AB
:102F0C007003FB603B685B68FA681343FB607B688B
:102F1C00204A934207D07B68B3F1804F03D07B6883
:102F2C001D4A934208D1FB6823F44073FB603B6855
:102F3C00DB68FA681343FB60FB6823F080023B6894
:102F4C005B691343FB607B68FA681A603B689A689C
:102F5C007B68DA623B681A687B689A627B680D4A08
:102F6C00934203D13B681A697B681A637B68012220
:102F7C005A617B681B6903F00103002B05D07B6849
:102F8C001B6923F001027B681A6100BF1437BD4630
:102F9C0080BC7047002C01400004004080B487B016
:102FAC0000AFF860B9607A60FB681B6A7B61FB68F4
:102FBC001B6A23F00102FB681A62FB689B693B6188
:102FCC003B6923F0F0033B617B681B013A691343B7
:102FDC003B617B6923F00A037B617A69BB6813430D
:102FEC007B61FB683A699A61FB687A691A6200BF77
:102FFC001C37BD4680BC704780B487B000AFF8600A
:10300C00B9607A60FB681B6A7B61FB681B6A23F002
:10301C001002FB681A62FB689B693B613B6923F4F5
:10302C0070433B617B681B033A6913433B617B69CB
:10303C0023F0A0037B61BB681B017A6913437B619E
:10304C00FB683A699A61FB687A691A6200BF1C379F
:10305C00BD4680BC704780B485B000AF78603960E5
:10306C007B689B68FB60FB6823F07003FB603A682D
:10307C00FB68134343F00703FB607B68FA689A60B4
:10308C0000BF1437BD4680BC704780B487B000AF1A
:10309C00F860B9607A603B60FB689B687B617B6918
:1030AC0023F47F437B613B681A027B681A43BB683D
:1030BC0013437A6913437B61FB687A699A6000BF9A
:1030CC001C37BD4680BC704780B485B000AF7860BB
:1030DC0039607B6893F83C30012B01D1022341E02D
:1030EC007B68012283F83C207B68022283F83D2018
:1030FC007B681B685B68FB607B681B689B68BB60BC
:10310C00FB6823F07003FB603B681B68FA68134391
:10311C00FB607B681B68FA685A607B681B68144A02
:10312C00934209D07B681B68B3F1804F04D07B6855
:10313C001B68104A93420CD1BB6823F08003BB6020
:10314C003B685B68BA681343BB607B681B68BA68F2
:10315C009A607B68012283F83D207B68002283F80B
:10316C003C20002318461437BD4680BC704700BF76
:10317C00002C01400004004080B483B000AF7860A4
:10318C0000BF0C37BD4680BC704780B483B000AF25
:10319C00786000BF0C37BD4680BC704770B5002608
:1031AC000C4D0D4C641BA410A64209D100F022F862
:1031BC0000260A4D0A4C641BA410A64205D170BD12
:1031CC0055F8043B98470136EEE755F8043B984711
:1031DC000136F2E73C3200083C3200083C32000871
:1031EC004032000803460244934200D1704703F872
:1031FC00011BF9E7F8B500BFF8BC08BC9E46704748
:0C320C00F8B500BFF8BC08BC9E46704737
:10321800000000000000000001020304060708097E
:1032280002030405060708090A0B0C0D0E0F1010FF
:04323800010200008F
:04323C003101000854
:043240000D01000874
:10324400C8000000000000000000000000000000B2
:103254000100000001000000010000000100000066
:103264000100000001000000010000000100000056
:103274000100000001000000010000000100000046
:103284000100000001000000010000000100000036
:103294000008014000080140000801400008014006
:1032A4004000800000010040010000000100000017
:1032B4000100000088130000D0070000B80B0000D4
:0C32C40000127A00100000000100000061
:0400000508001B894B
:00000001FF
