:020000040800F2
:1000000000280020811B00084D1900085319000822
:10001000591900085F190008651900080000000060
:100020000000000000000000000000006B19000844
:100030007719000800000000831900088F190008D4
:10004000C91B0008C91B0008C91B0008C91B000800
:10005000C91B0008C91B0008C91B0008C91B0008F0
:10006000C91B0008C91B0008C91B0008C91B0008E0
:10007000C91B0008C91B0008C91B0008C91B0008D0
:10008000C91B0008C91B0008C91B0008C91B0008C0
:10009000C91B0008C91B0008C91B0008C91B0008B0
:1000A000C91B0008C91B0008C91B0008C91B0008A0
:1000B0009D190008C91B000800000000C91B0008AA
:1000C000C91B00080000000000000000C91B000858
:1000D00000000000C91B0008C91B00080000000048
:1000E000C91B0008C91B0008C91B0008000000004C
:1000F0000000000000000000000000000000000000
:0C01000000000000000000005FF808F1A3
:10010C0010B5054C237833B9044B13B10448AFF345
:10011C0000800123237010BD90000020000000001F
:10012C00F831000808B5034B1BB103490348AFF382
:10013C00008008BD0000000094000020F831000889
:10014C0080B483B000AF7860094A7B6852F82330E2
:10015C00012B06D1064A7B68002142F823100123AB
:10016C0000E0002318460C37BD4680BC704700BF2A
:10017C00AC00002080B582B000AF00237B605BE058
:10018C00314A7B6852F8232030497B6831F81330B0
:10019C001946104601F0FEFF0346FB70FA782C4915
:1001AC007B6851F823309A421AD0FA7828497B6838
:1001BC0041F82320264A7B6852F8232025497B6886
:1001CC0041F82320234A7B6852F8232022497B687C
:1001DC0041F82320214A7B68052142F8231028E0AE
:1001EC001E4A7B6852F82330002B08DD1B4A7B68C3
:1001FC0052F823305A1E19497B6841F82320174ABC
:10020C007B6852F82330002B13D1154A7B6852F8C7
:10021C002320FB789A420CD0FA7811497B6841F87C
:10022C002320FB78002B04D10E4A7B68012142F875
:10023C0023107B6801337B607B68032BA0DD00BF40
:10024C0000BF0837BD4680BD500000206000002074
:10025C0030000020200000201000002000000020B2
:10026C0040000020AC00002080B582B000AF786068
:10027C007B68092B00F2808101A252F823F000BFA9
:10028C00B5020008FD020008450300088D030008B4
:10029C00D50300081D04000865040008AD0400081F
:1002AC00F50400083D05000800220121B54801F0C5
:1002BC0088FF00220221B34801F083FF00220421B1
:1002CC00B04801F07EFF00220821AE4801F079FF12
:1002DC0000221021AB4801F074FF00222021A94814
:1002EC0001F06FFF01224021A64801F06AFF44E1B2
:1002FC0001220121A34801F064FF00220221A14840
:10030C0001F05FFF002204219E4801F05AFF0122F8
:10031C0008219C4801F055FF01221021994801F059
:10032C0050FF01222021974801F04BFF0122402170
:10033C00944801F046FF20E100220121914801F090
:10034C0040FF002202218F4801F03BFF01220421D3
:10035C008C4801F036FF002208218A4801F031FF59
:10036C0000221021874801F02CFF01222021854812
:10037C0001F027FF00224021824801F022FFFCE01F
:10038C00002201217F4801F01CFF002202217D4840
:10039C0001F017FF002204217A4801F012FF00221D
:1003AC000821784801F00DFF01221021754801F059
:1003BC0008FF01222021734801F003FF0022402195
:1003CC00704801F0FEFED8E0012201216D4801F0D9
:1003DC00F8FE002202216B4801F0F3FE00220421FA
:1003EC00684801F0EEFE01220821664801F0E9FEA2
:1003FC0001221021634801F0E4FE00222021614813
:10040C0001F0DFFE002240215E4801F0DAFEB4E08C
:10041C00002201215B4801F0D4FE0122022159483F
:10042C0001F0CFFE00220421564801F0CAFE002242
:10043C000821544801F0C5FE01221021514801F059
:10044C00C0FE002220214F4801F0BBFE00224021BB
:10045C004C4801F0B6FE90E000220121494801F021
:10046C00B0FE01220221474801F0ABFE002204211C
:10047C00444801F0A6FE00220821424801F0A1FEEA
:10048C00002210213F4801F09CFE002220213D4813
:10049C0001F097FE002240213A4801F092FE6CE0F8
:1004AC0000220121374801F08CFE00220221354840
:1004BC0001F087FE00220421324801F082FE012265
:1004CC000821304801F07DFE012210212D4801F059
:1004DC0078FE012220212B4801F073FE01224021DD
:1004EC00284801F06EFE48E000220121254801F069
:1004FC0068FE00220221234801F063FE0022042141
:10050C00204801F05EFE002208211E4801F059FE31
:10051C00002210211B4801F054FE00222021194812
:10052C0001F04FFE00224021164801F04AFE24E063
:10053C0000220121134801F044FE0022022111483F
:10054C0001F03FFE002204210E4801F03AFE002289
:10055C0008210C4801F035FE01221021094801F058
:10056C0030FE00222021074801F02BFE0022402102
:10057C00044801F026FE00E000BF00BF0837BD466E
:10058C0080BD00BF000C014080B582B000AF786028
:10059C007B68092B00F2BC8101A252F823F000BF4A
:1005AC00D5050008290600087D060008D1060008BC
:1005BC002507000879070008CD0700082108000866
:1005CC0075080008C908000800228021D34801F0F2
:1005DC00F8FD00224FF48071D04801F0F2FD0022AA
:1005EC004FF40071CD4801F0ECFD00224FF4806116
:1005FC00CA4801F0E6FD00224FF40061C74801F043
:10060C00E0FD00224FF48051C44801F0DAFD0122D4
:10061C004FF40051C14801F0D4FD7AE10122802150
:10062C00BE4801F0CEFD00224FF48071BB4801F0B2
:10063C00C8FD00224FF40071B84801F0C2FD012240
:10064C004FF48061B54801F0BCFD01224FF400610C
:10065C00B24801F0B6FD01224FF48051AF4801F0D1
:10066C00B0FD01224FF40051AC4801F0AAFD50E15D
:10067C0000228021A94801F0A4FD00224FF48071D2
:10068C00A64801F09EFD01224FF40071A34801F031
:10069C0098FD00224FF48061A04801F092FD0022E9
:1006AC004FF400619D4801F08CFD01224FF4805104
:1006BC009A4801F086FD00224FF40051974801F052
:1006CC0080FD26E100228021944801F07AFD002271
:1006DC004FF48071914801F074FD00224FF40071C9
:1006EC008E4801F06EFD00224FF480618B4801F0C2
:1006FC0068FD01224FF40061884801F062FD01227F
:10070C004FF48051854801F05CFD00224FF40051FC
:10071C00824801F056FDFCE0012280217F4801F067
:10072C0050FD00224FF480717C4801F04AFD0022FC
:10073C004FF40071794801F044FD01224FF48061BF
:10074C00764801F03EFD01224FF40061734801F040
:10075C0038FD00224FF48051704801F032FD002228
:10076C004FF400516D4801F02CFDD2E000228021A5
:10077C006A4801F026FD01224FF48071674801F0B0
:10078C0020FD00224FF40071644801F01AFD002294
:10079C004FF48061614801F014FD01224FF40061B7
:1007AC005E4801F00EFD00224FF480515B4801F0D1
:1007BC0008FD00224FF40051584801F002FDA8E05A
:1007CC0000228021554801F0FCFC01224FF480717D
:1007DC00524801F0F6FC00224FF400714F4801F032
:1007EC00F0FC00224FF480614C4801F0EAFC00223E
:1007FC004FF40061494801F0E4FC00224FF48051B1
:10080C00464801F0DEFC00224FF40051434801F051
:10081C00D8FC7EE000228021404801F0D2FC00226E
:10082C004FF480713D4801F0CCFC00224FF4007174
:10083C003A4801F0C6FC01224FF48061374801F0C0
:10084C00C0FC01224FF40061344801F0BAFC0122D3
:10085C004FF48051314801F0B4FC01224FF40051A7
:10086C002E4801F0AEFC54E0002280212B4801F010
:10087C00A8FC00224FF48071284801F0A2FC002251
:10088C004FF40071254801F09CFC00224FF480616C
:10089C00224801F096FC00224FF400611F4801F041
:1008AC0090FC00224FF480511C4801F08AFC00227D
:1008BC004FF40051194801F084FC2AE000228021F9
:1008CC00164801F07EFC00224FF48071134801F0B1
:1008DC0078FC00224FF40071104801F072FC0022E9
:1008EC004FF480610D4801F06CFC01224FF4006163
:1008FC000A4801F066FC00224FF48051074801F0D1
:10090C0060FC00224FF40051044801F05AFC00E056
:10091C0000BF00BF0837BD4680BD00BF000C0140C2
:10092C0080B500AF3A4B1B68002B02D0012B35D0A1
:10093C006CE000224FF48051364801F042FC012259
:10094C004FF40051334801F03CFC334B1B68334AE5
:10095C0082FB03129210DB17D31A1846FFF784FCA4
:10096C002D4B1A682D4B83FB02139910D317C91A00
:10097C000B469B000B445B00D11A0846FFF704FEA4
:10098C00032000F043FF0346012B3CD1322103200E
:10099C0000F024FF1E4B01221A6034E001224FF4B8
:1009AC0080511C4801F00DFC00224FF400511948F5
:1009BC0001F007FC1A4B1B68184A82FB03129210B9
:1009CC00DB17D31A1846FFF74FFC154B1A68134B5D
:1009DC0083FB02139910D317C91A0B469B000B44C7
:1009EC005B00D11A0846FFF7CFFD032000F00EFF85
:1009FC000346012B09D13221032000F0EFFE044BFA
:100A0C0000221A6001E000BF00E000BF00BF80BD03
:100A1C00BC00002000080140C40000206766666628
:100A2C00C800002080B500AF3C4B1B68052B12D1D1
:100A3C0000224FF480513A4801F0C3FB01224FF4DD
:100A4C000051374801F0BDFB0020FFF70DFC0520DD
:100A5C00FFF79AFD60E0334B1B68002B02D0012B93
:100A6C0022D059E000224FF480512D4801F0A9FB0F
:100A7C0001224FF400512A4801F0A3FB0020FFF79C
:100A8C00F3FB264B1B681846FFF77EFD032000F096
:100A9C00BDFE0346012B3CD13221032000F09EFE0B
:100AAC00204B01221A6034E001224FF480511C4883
:100ABC0001F087FB00224FF40051194801F081FB33
:100ACC00194B1B68194A82FB03129210DB17D31ABD
:100ADC001846FFF7C9FB144B1A68144B83FB02131F
:100AEC009910D317C91A0B469B000B445B00D11A03
:100AFC000846FFF749FD032000F088FE0346012B52
:100B0C0009D13221032000F069FE064B00221A6045
:100B1C0001E000BF00E000BF80BD00BF70000020FE
:100B2C0000080140BC000020C0000020676666661B
:100B3C0080B500AFA94B1B68012B40F04481A84B3A
:100B4C001B68013B032B00F2988001A252F823F0A2
:100B5C006D0B00089D0B0008EB0B0008390C00080E
:100B6C0000F032FF00F074FF00F050FF9C4B0222AB
:100B7C001A609C4B1B689C4A82FB03129211DB1778
:100B8C00D31A9A4A13606421012000F027FE7BE0FF
:100B9C0000F00EFF00F05CFF00F038FF012000F0C9
:100BAC0035FE0346012B6AD1904B1B68013B8F4AE3
:100BBC0013606421012000F011FE8C4B1B68002B8C
:100BCC005DDC874B03221A60894B1B68864A82FBCB
:100BDC0003129211DB17D31A844A13604FE000F012
:100BEC00F3FE00F029FF00F011FF012000F00EFED3
:100BFC000346012B45D17D4B1B68013B7B4A13609F
:100C0C006421012000F0EAFD784B1B68002B38DCD6
:100C1C00734B04221A60774B1B68734A82FB0312D6
:100C2C009211DB17D31A714A13602AE000F0CCFE44
:100C3C0000F00EFF00F0DEFE012000F0E7FD0346A1
:100C4C00012B20D1694B1B68013B684A136064215E
:100C5C00012000F0C3FD654B1B68002B13DC604BBF
:100C6C0002221A605F4B1B685F4A82FB03129211CF
:100C7C00DB17D31A5D4A136005E000BF04E000BF28
:100C8C0002E000BF00E000BF5B4B1B68013B032B85
:100C9C0000F29B8001A252F823F000BFB90C0008AF
:100CAC00E90C0008370D0008850D000800F0F2FE75
:100CBC0000F038FF00F012FF4F4B03221A604C4B30
:100CCC001B68494A82FB03129211DB17D31A4B4A59
:100CDC0013606421022000F081FD7DE000F0CEFE67
:100CEC0000F020FF00F0FAFE022000F08FFD03461A
:100CFC00012B6CD1414B1B68013B404A13606421B2
:100D0C00022000F06BFD3D4B1B68002B5FD13A4B72
:100D1C0003221A60364B1B68334A82FB0312921172
:100D2C00DB17D31A354A136051E000F0B3FE00F024
:100D3C00EDFE00F0D3FE022000F068FD0346012B0F
:100D4C0047D12E4B1B68013B2C4A136064210220B7
:100D5C0000F044FD294B1B68002B3AD1264B042292
:100D6C001A60244B1B68204A82FB03129211DB177A
:100D7C00D31A224A13602CE000F08CFE00F0D2FE55
:100D8C0000F0A0FE022000F041FD0346012B22D111
:100D9C001A4B1B68013B194A13606421022000F0B6
:100DAC001DFD164B1B68002B15D1134B02221A602C
:100DBC000C4B1B680C4A82FB03129211DB17D31AE3
:100DCC000E4A136007E000BF06E000BF04E000BF5E
:100DDC0002E000BF00E000BF80BD00BF700000203B
:100DEC006800002074000020D34D6210C400002065
:100DFC007C000020780000206C000020C80000203F
:100E0C0080B500AFB24B1B68013B042B00F2508144
:100E1C0001A252F823F000BF390E0008890E000819
:100E2C00370F0008E30F000893100008FFF778FD58
:100E3C000020FFF785F90346012B0FD13221042046
:100E4C0000F0CCFCA24B02221A60A24B01221A60C9
:100E5C0000F080FE3221032000F0C0FC0320FFF7DD
:100E6C006FF90346012B40F02781994B05221A603C
:100E7C00994B00221A6000F06DFE1DE1042000F079
:100E8C00C5FC0346012B07D13221042000F0A6FC3F
:100E9C0000F0A6FD00F00AFE0120FFF751F9034611
:100EAC00012B0BD18B4B1B6801338A4A1360894B86
:100EBC001B68632B02DD874B00221A600220FFF7B0
:100ECC003FF90346012B0AD1824B1B684FF47A720F
:100EDC0002FB03F3814A13607E4B01221A60FFF779
:100EEC00A1FD0020FFF72CF90346012B0DD1322177
:100EFC00042000F073FC764B03221A60754B012220
:100F0C001A6000F061FD00F0C5FD0320FFF718F931
:100F1C000346012B40F0D2806D4B05221A606E4BBC
:100F2C0000221A6000F016FEC8E0042000F06EFCEF
:100F3C000346012B07D13221042000F04FFC00F0B6
:100F4C0071FD00F0D7FD0120FFF7FAF80346012BE5
:100F5C000BD1604B1B6801335E4A13605D4B1B6801
:100F6C00632B02DD5B4B00221A600220FFF7E8F8CE
:100F7C000346012B0AD1574B1B684FF47A7202FBC4
:100F8C0003F3574A1360534B01221A60FFF74AFDD3
:100F9C000020FFF7D5F80346012B0DD13221042098
:100FAC0000F01CFC4A4B04221A604A4B01221A60C6
:100FBC0000F02CFD00F092FD0320FFF7C1F8034672
:100FCC00012B7DD1424B05221A60434B00221A6043
:100FDC0000F0C0FD74E0042000F018FC0346012B67
:100FEC0007D13221042000F0F9FB00F03DFD00F0A8
:100FFC00A5FD0120FFF7A4F80346012B0BD1354BBF
:10100C001B680133334A1360324B1B68632B02DDC0
:10101C00304B00221A600220FFF792F80346012B96
:10102C000AD12C4B1B684FF47A7202FB03F32D4A46
:10103C001360284B01221A60FFF7F4FC0020FFF725
:10104C007FF80346012B0FD1214B01221A60214B53
:10105C0001221A60244B01221A60244B01221A60CF
:10106C0000F0F6FC00F05EFD0320FFF769F8034684
:10107C00012B27D1164B05221A60174B00221A6040
:10108C0000F068FD1EE00320FFF75AF80346012B21
:10109C001AD10F4B01221A600F4B00221A60124B0F
:1010AC0001221A60114B01221A6000F053FD0BE073
:1010BC00074B01221A6008E000BF06E000BF04E005
:1010CC0000BF02E000BF00E000BF00BF80BD00BF5A
:1010DC0070000020C0000020CC0000207400002014
:1010EC00780000207C000020680000206C000020AC
:1010FC0080B500AF3C4B1B68052B6DD13B4B1B687F
:10110C00022B4DD0022B63DC002B02D0012B2FD0F5
:10111C005EE000F01FFDFFF785FC0120FFF710F8E3
:10112C000346012B0ED1314B01221A6000F040FC1A
:10113C0000F08EFC00F06AFC00F0ACFC00F0E6FC69
:10114C0000F0CCFC0220FEF7FBFF0346012B45D13F
:10115C00264B02221A6000F037FC00F06DFC00F008
:10116C0055FC00F08BFC00F0DDFC00F0B7FC35E02A
:10117C00FFF758FC0220FEF7E3FF0346012B2FD1AB
:10118C001A4B02221A6000F01FFC00F055FC00F014
:10119C003DFC00F073FC00F0C5FC00F09FFC1FE070
:1011AC00FFF740FC0120FEF7CBFF0346012B19D1C2
:1011BC000E4B01221A6000F0FBFB00F049FC00F022
:1011CC0025FC00F067FC00F0A1FC00F087FC09E0B6
:1011DC00064B00221A6006E000BF04E000BF02E0EC
:1011EC0000BF00E000BF80BD70000020CC000020DC
:1011FC0080B500AF2021024800F0FBFF00BF80BD8E
:10120C000008014080B500AF00F0DAFC00F056F8A1
:10121C0000F0DCF800F08EF81E4801F02FFC00F016
:10122C0049F94FF47A7200211B4800F093F93221EE
:10123C00032000F0D3FA0A220021184800F08AF9A2
:10124C000A220021164800F085F9164B01221A607B
:10125C00154B01221A6000224FF48051134800F004
:10126C00B0FF00224FF40051104800F0AAFF642296
:10127C0000210F4800F06EF9642200210D4800F0A7
:10128C0069F9642200210C4800F064F900F046FA78
:10129C00FCE700BFD4000020FD1100084118000835
:1012AC0081010008680000206C000020000801404B
:1012BC003D0B00080D0E0008FD10000880B590B025
:1012CC0000AF07F1180328220021184601F086FF11
:1012DC003B1D00221A605A609A60DA601A61022380
:1012EC00BB610123BB621023FB6200237B6307F10C
:1012FC001803184600F096FF0346002B01D000F0AF
:10130C00D3F80F237B600023BB600023FB6000231A
:10131C003B6100237B613B1D0021184601F002FA62
:10132C000346002B01D000F0BFF800BF4037BD468C
:10133C0080BD000080B586B000AF07F10803002225
:10134C001A605A609A60DA603B4600221A605A6052
:10135C001D4B4FF080421A601B4B41F63F725A6096
:10136C00194B00229A60184B0922DA60164B0022A6
:10137C001A61154B00229A61134801F02FFB0346AA
:10138C00002B01D000F090F84FF48053BB6007F1B4
:10139C00080319460C4801F0ADFC0346002B01D0A4
:1013AC0000F082F800233B6000237B603B4619462B
:1013BC00054801F085FE0346002B01D000F074F8BF
:1013CC0000BF1837BD4680BDD400002080B586B064
:1013DC0000AF07F1080300221A605A609A60DA60C5
:1013EC00294B9B69284A43F004039361264B9B6964
:1013FC0003F004037B607B68234B9B69224A43F018
:10140C0008039361204B9B6903F008033B603B6826
:10141C00002243F63C611D4800F0D3FE002243F647
:10142C00FF711B4800F0CDFE43F63C63BB6001230B
:10143C00FB6000233B6102237B6107F10803194623
:10144C00124800F02DFD44F2C013BB600023FB607A
:10145C0001233B6107F1080319460C4800F020FDFD
:10146C0043F6FF73BB600123FB6000233B61022347
:10147C007B6107F108031946054800F011FD00BF18
:10148C001837BD4680BD00BF001002400008014067
:10149C00000C014080B582B000AF786000F026F9F6
:1014AC0000BF0837BD4680BD80B400AF72B600BF28
:1014BC00FEE7000080B483B000AF234B00221A601B
:1014CC00224B01221A6000237B6033E020497A68AA
:1014DC0013469B0013449B000B4400221A601C49CA
:1014EC007A6813469B0013449B000B440433002280
:1014FC001A6017497A6813469B0013449B000B44EF
:10150C00083300221A6012497A6813469B00134470
:10151C009B000B440C3300221A700D497A68134659
:10152C009B0013449B000B44103300221A607B6811
:10153C0001337B607B68132BC8D900BF00BF0C370D
:10154C00BD4680BC704700BFD0000020800000204A
:10155C001C010020B0B489B000AFF860B9607A60AB
:10156C005E4B1B68132B01D90023B2E00023FB61F7
:10157C000023BB611CE05A49FA6913469B001344D3
:10158C009B000B4404331A68BB691344BA689A4233
:10159C0014D35349FA6913469B0013449B000B4424
:1015AC0004331B68BA691344BB61FB690133FB61EB
:1015BC004A4B1B68FA699A42DDD300E000BF474BE7
:1015CC001B687B6117E07B695A1E454879690B469D
:1015DC009B000B449B001844414913469B00134449
:1015EC009B000B4404461D460FCD0FC42B68236093
:1015FC007B6901337B617A69FB699A42E3D8394B89
:10160C001B685A1C37490A603B613549FA69134615
:10161C009B0013449B000B44FA681A60BB68324A67
:10162C00A2FB0323D9082E48FA6913469B001344E6
:10163C009B000344043319607B682B4AA2FB0323F1
:10164C00D9082748FA6913469B0013449B000344AE
:10165C00083319602249FA6913469B0013449B0016
:10166C000B440C3300221A70BA68BB69D11A1C489F
:10167C00FA6913469B0013449B000344043319601E
:10168C00164B1B68FA699A421DD2FB695A1C144905
:10169C0013469B0013449B000B44043319681048F9
:1016AC00FA6913469B0013449B00034404331B68E4
:1016BC00FA690132C91A0A4813469B0013449B006D
:1016CC00034404331960054B1B680133034A136050
:1016DC003B6918462437BD46B0BC7047D00000208B
:1016EC001C01002080000020CDCCCCCC80B400AFFD
:1016FC00084B1B68002B08D0074B1B68002B04D031
:10170C00054B5B68013B044A536000BFBD4680BC7F
:10171C00704700BFD00000201C010020B0B586B07F
:10172C0000AF2C4B1B68002B4FD02B4B5B68002B56
:10173C004BD1294B3C461D460FCD0FC42B68236063
:10174C003B689847234B1B68013B224A13600023DC
:10175C007B6117E07B695A1C1F4879690B469B001B
:10176C000B449B0018441C4913469B0013449B00DC
:10177C000B4404461D460FCD0FC42B6823607B69B8
:10178C0001337B61134B1B687A699A42E2D3114B8C
:10179C001A68114913469B0013449B000B4400220A
:1017AC001A600C4B1A680C4913469B0013449B009F
:1017BC000B44103300221A60BB68002B05D03B6829
:1017CC00B968BA681846FFF7C5FE00BF1837BD46A2
:1017DC00B0BD00BFD00000201C01002080B483B03D
:1017EC0000AF7860396007497B683A6841F823207C
:1017FC00054A7B68002142F8231000BF0C37BD4618
:10180C0080BC7047AC020020FC02002080B483B086
:10181C0000AF7860064A7B6852F82330012B01D167
:10182C00012300E0002318460C37BD4680BC7047EE
:10183C00FC02002080B483B000AF00237B601CE06E
:10184C00124A7B6852F82330002B13DD0F4A7B6859
:10185C0052F823305A1E0D497B6841F823200B4A5D
:10186C007B6852F82330002B04DC094A7B68012189
:10187C0042F823107B6801337B607B68132BDFDD20
:10188C0000BF00BF0C37BD4680BC7047AC020020C7
:10189C00FC02002080B485B000AF154B9B69144A44
:1018AC0043F001039361124B9B6903F00103BB608E
:1018BC00BB680F4BDB690E4A43F08053D3610C4B72
:1018CC00DB6903F080537B607B680A4B5B68FB60D1
:1018DC00FB6823F0E063FB60FB6843F08063FB6014
:1018EC00044AFB68536000BF1437BD4680BC704788
:1018FC00001002400000014080B584B000AF786059
:10190C007B681B68B3F1804F13D10C4BDB690B4A1E
:10191C0043F00103D361094BDB6903F00103FB6066
:10192C00FB68002200211C2000F083FA1C2000F030
:10193C009CFA00BF1037BD4680BD00BF00100240AE
:10194C0080B400AFFEE780B400AFFEE780B400AF18
:10195C00FEE780B400AFFEE780B400AFFEE780B4D2
:10196C0000AF00BFBD4680BC704780B400AF00BF65
:10197C00BD4680BC704780B400AF00BFBD4680BC84
:10198C00704780B500AF00F061F900BF80BD00006A
:10199C0080B500AF024801F0BDF800BF80BD00BFAC
:1019AC00D400002080B400AF00BFBD4680BC70479F
:1019BC0080B500AF00220421024800F002FC00BFF9
:1019CC0080BD00BF0008014080B500AF012204219A
:1019DC00024800F0F6FB00BF80BD00BF00080140CC
:1019EC0080B500AF0421024800F003FC00BF80BDAD
:1019FC000008014080B500AF00220821024800F029
:101A0C00E0FB00BF80BD00BF0008014080B500AF07
:101A1C0001220821024800F0D4FB00BF80BD00BFAA
:101A2C000008014080B500AF0821024800F0E1FB3E
:101A3C0000BF80BD0008014080B500AF002210211E
:101A4C00024800F0BEFB00BF80BD00BF0008014093
:101A5C0080B500AF01221021024800F0B2FB00BF9C
:101A6C0080BD00BF0008014080B500AF10210248C6
:101A7C0000F0BFFB00BF80BD0008014080B500AF87
:101A8C0000224FF40071024800F09BFB00BF80BDA8
:101A9C000008014080B500AF01224FF400710248EC
:101AAC0000F08FFB00BF80BD0008014080B500AF87
:101ABC004FF40071024800F09CFB00BF80BD00BFDA
:101ACC000008014080B500AF00224FF4806102484D
:101ADC0000F077FB00BF80BD0008014080B500AF6F
:101AEC0001224FF48061024800F06BFB00BF80BD07
:101AFC000008014080B500AF4FF48061024800F04F
:101B0C0078FB00BF80BD00BF0008014080B500AF6E
:101B1C0000224FF40061024800F053FB00BF80BD6F
:101B2C000008014080B500AF01224FF4006102486B
:101B3C0000F047FB00BF80BD0008014080B500AF3E
:101B4C004FF40061024800F054FB00BF80BD00BFA1
:101B5C000008014080B500AFFFF77AFFFFF734FFB4
:101B6C00FFF754FFFFF7DEFFFFF794FFFFF7B6FF19
:101B7C0000BF80BDFFF716FF0B480C490C4A002331
:101B8C0002E0D458C4500433C4188C42F9D3094A27
:101B9C00094C002301E013600432A242FBD301F094
:101BAC00F9FAFFF72FFB704700000020900000208F
:101BBC003C3200089000002050030020FEE700009B
:101BCC0080B500AF084B1B68074A43F01003136045
:101BDC00032000F023F90F2000F008F8FFF75AFE5D
:101BEC000023184680BD00BF0020024080B582B0A3
:101BFC0000AF7860124B1A68124B1B7819464FF4E1
:101C0C007A73B3FBF1F3B2FBF3F3184600F03BF934
:101C1C000346002B01D001230EE07B680F2B0AD862
:101C2C00002279684FF0FF3000F003F9064A7B6818
:101C3C001360002300E0012318460837BD4680BD21
:101C4C00840000208C0000208800002080B400AFAD
:101C5C00054B1B781A46054B1B681344034A13604B
:101C6C0000BFBD4680BC70478C0000204C03002098
:101C7C0080B400AF024B1B681846BD4680BC704751
:101C8C004C03002080B485B000AF78607B6803F013
:101C9C000703FB600C4BDB68BB60BA684FF6FF03B5
:101CAC001340BB60FB681A02BB68134343F0BF636D
:101CBC0043F40033BB60044ABB68D36000BF1437E5
:101CCC00BD4680BC704700BF00ED00E080B400AFA3
:101CDC00044BDB681B0A03F007031846BD4680BCA7
:101CEC00704700BF00ED00E080B483B000AF034646
:101CFC00FB7197F90730002B0BDBFB7903F01F020C
:101D0C00064997F907305B09012000FA02F241F805
:101D1C00232000BF0C37BD4680BC704700E100E0BB
:101D2C0080B483B000AF03463960FB7197F907307C
:101D3C00002B0ADB3B68DAB20C4997F90730120129
:101D4C00D2B20B4483F800230AE03B68DAB20849AC
:101D5C00FB7903F00F03043B1201D2B20B441A7649
:101D6C0000BF0C37BD4680BC704700BF00E100E0EF
:101D7C0000ED00E080B489B000AFF860B9607A6023
:101D8C00FB6803F00703FB61FB69C3F10703042B3A
:101D9C0028BF0423BB61FB690433062B02D9FB6902
:101DAC00033B00E000237B614FF0FF32BB6902FA7A
:101DBC0003F3DA43BB681A407B699A404FF0FF315A
:101DCC007B6901FA03F3D9437B680B401343184634
:101DDC002437BD4680BC704780B582B000AF7860B8
:101DEC007B68013BB3F1807F01D301230FE00A4AEA
:101DFC007B68013B53600F214FF0FF30FFF790FFE2
:101E0C00054B00229A60044B07221A6000231846E7
:101E1C000837BD4680BD00BF10E000E080B582B041
:101E2C0000AF78607868FFF72DFF00BF0837BD461C
:101E3C0080BD80B586B000AF0346B9607A60FB7395
:101E4C0000237B61FFF742FF78617A68B968786993
:101E5C00FFF790FF024697F90F3011461846FFF72F
:101E6C005FFF00BF1837BD4680BD80B582B000AFA4
:101E7C000346FB7197F907301846FFF735FF00BF93
:101E8C000837BD4680BD80B582B000AF78607868F9
:101E9C00FFF7A2FF034618460837BD4680BD000079
:101EAC0080B48BB000AF7860396000237B62002374
:101EBC003B6248E101227B6A02FA03F3FB613B6857
:101ECC001B68FA691340BB61BA69FB699A4240F01E
:101EDC0037813B685B68A34A93425ED0A14A934228
:101EEC0075D8A14A934258D09F4A93426FD89F4AC3
:101EFC00934252D09D4A934269D89D4A93424CD00A
:101F0C009B4A934263D89B4A934246D0994A934248
:101F1C005DD8122B2AD8122B59D801A252F823F0D3
:101F2C00A71F0008811F0008931F0008D51F000879
:101F3C00DB1F0008DB1F0008DB1F0008DB1F00088D
:101F4C00DB1F0008DB1F0008DB1F0008DB1F00087D
:101F5C00DB1F0008DB1F0008DB1F0008DB1F00086D
:101F6C00DB1F0008891F00089D1F0008824A93424E
:101F7C0013D02CE03B68DB683B6229E03B68DB68F4
:101F8C0004333B6224E03B68DB6808333B621FE0B0
:101F9C003B68DB680C333B621AE03B689B68002BA8
:101FAC0002D104233B6213E03B689B68012B05D1F3
:101FBC0008233B627B68FA691A6109E008233B62DB
:101FCC007B68FA695A6103E000233B6200E000BFC2
:101FDC00BB69FF2B01D87B6801E07B6804337B6114
:101FEC00BB69FF2B02D87B6A9B0002E07B6A083B33
:101FFC009B003B617B691A680F213B6901FA03F373
:10200C00DB431A40396A3B6901FA03F31A437B69D3
:10201C001A603B685B6803F08053002B00F09080E3
:10202C00564B9B69554A43F001039361534B9B6993
:10203C0003F00103BB60BB68514A7B6A9B08023307
:10204C0052F82330FB607B6A03F003039B000F22E2
:10205C0002FA03F3DB43FA681340FB607B68494ADE
:10206C0093420DD07B68484A934207D07B68474A1D
:10207C00934201D1022304E0032302E0012300E098
:10208C0000237A6A02F0030292009340FA68134329
:10209C00FB603B497B6A9B080233FA6841F82320BA
:1020AC003B685B6803F48013002B06D0384B9A68AE
:1020BC003749BB6913438B6006E0354B9A68BB69A3
:1020CC00DB43334913408B603B685B6803F40013BC
:1020DC00002B06D02E4BDA682D49BB691343CB601D
:1020EC0006E02B4BDA68BB69DB4329491340CB6014
:1020FC003B685B6803F40033002B06D0244B5A6812
:10210C002349BB6913434B6006E0214B5A68BB69FA
:10211C00DB431F4913404B603B685B6803F480331F
:10212C00002B06D01A4B1A681949BB6913430B6074
:10213C0006E0174B1A68BB69DB43154913400B606B
:10214C007B6A01337B623B681A687B6A22FA03F371
:10215C00002B7FF4AFAE00BF00BF2C37BD4680BC58
:10216C00704700BF00003210000031100000221038
:10217C00000021100000121000001110001002408D
:10218C000000014000080140000C0140001001401B
:10219C000004014080B485B000AF78600B467B80B2
:1021AC007B689A687B881340002B02D00123FB7359
:1021BC0001E00023FB73FB7B18461437BD4680BC43
:1021CC00704780B483B000AF78600B467B801346B9
:1021DC007B707B78002B03D07A887B681A6103E0D4
:1021EC007B881A047B681A6100BF0C37BD4680BC23
:1021FC00704780B485B000AF78600B467B807B68FD
:10220C00DB68FB607A88FB6813401A04FB68D943CF
:10221C007B880B401A437B681A6100BF1437BD469C
:10222C0080BC704780B586B000AF78607B68002BAF
:10223C0001D101236CE27B681B6803F00103002BC6
:10224C0000F08780924B5B6803F00C03042B0CD0DE
:10225C008F4B5B6803F00C03082B12D18C4B5B6823
:10226C0003F48033B3F5803F0BD1894B1B6803F427
:10227C000033002B6CD07B685B68002B68D101238A
:10228C0046E27B685B68B3F5803F06D1804B1B68E8
:10229C007F4A43F4803313602EE07B685B68002B2D
:1022AC000CD17B4B1B687A4A23F480331360784B38
:1022BC001B68774A23F4802313601DE07B685B68FE
:1022CC00B3F5A02F0CD1724B1B68714A43F48023D9
:1022DC0013606F4B1B686E4A43F4803313600BE042
:1022EC006B4B1B686A4A23F480331360684B1B6882
:1022FC00674A23F4802313607B685B68002B13D040
:10230C00FFF7B6FC386108E0FFF7B2FC02463B6908
:10231C00D31A642B01D90323FAE15D4B1B6803F438
:10232C000033002BF0D014E0FFF7A2FC386108E07A
:10233C00FFF79EFC02463B69D31A642B01D9032399
:10234C00E6E1534B1B6803F40033002BF0D100E0A3
:10235C0000BF7B681B6803F00203002B63D04C4B5F
:10236C005B6803F00C03002B0BD0494B5B6803F04C
:10237C000C03082B1CD1464B5B6803F48033002BF9
:10238C0016D1434B1B6803F00203002B05D07B686E
:10239C001B69012B01D00123BAE13D4B1B6823F0D3
:1023AC00F8027B685B69DB00394913430B603AE048
:1023BC007B681B69002B20D0364B01221A60FFF77B
:1023CC0057FC386108E0FFF753FC02463B69D31A0F
:1023DC00022B01D903239BE12D4B1B6803F0020355
:1023EC00002BF0D02A4B1B6823F0F8027B685B694A
:1023FC00DB00274913430B6015E0264B00221A60C3
:10240C00FFF736FC386108E0FFF732FC02463B6907
:10241C00D31A022B01D903237AE11D4B1B6803F05D
:10242C000203002BF0D17B681B6803F00803002B20
:10243C003AD07B689B69002B19D0174B01221A608C
:10244C00FFF716FC386108E0FFF712FC02463B6907
:10245C00D31A022B01D903235AE10D4B5B6A03F00B
:10246C000203002BF0D0012000F09AFA1CE00A4B7A
:10247C0000221A60FFF7FCFB38610FE0FFF7F8FB56
:10248C0002463B69D31A022B08D9032340E100BF53
:10249C000010024000004242800442429E4B5B6AA4
:1024AC0003F00203002BE9D17B681B6803F00403E3
:1024BC00002B00F0A6800023FB75974BDB6903F023
:1024CC008053002B0DD1944BDB69934A43F080531E
:1024DC00D361914BDB6903F08053BB60BB68012374
:1024EC00FB758E4B1B6803F48073002B18D18B4B40
:1024FC001B688A4A43F480731360FFF7B9FB386199
:10250C0008E0FFF7B5FB02463B69D31A642B01D9EF
:10251C000323FDE0814B1B6803F48073002BF0D088
:10252C007B68DB68012B06D17B4B1B6A7A4A43F034
:10253C00010313622DE07B68DB68002B0CD1764B1A
:10254C001B6A754A23F001031362734B1B6A724AB0
:10255C0023F0040313621CE07B68DB68052B0CD1B1
:10256C006D4B1B6A6C4A43F0040313626A4B1B6A83
:10257C00694A43F0010313620BE0674B1B6A664A1E
:10258C0023F001031362644B1B6A634A23F00403B8
:10259C0013627B68DB68002B15D0FFF769FB386191
:1025AC000AE0FFF765FB02463B69D31A41F2883219
:1025BC00934201D90323ABE0574B1B6A03F0020390
:1025CC00002BEED014E0FFF753FB38610AE0FFF765
:1025DC004FFB02463B69D31A41F28832934201D930
:1025EC00032395E04C4B1B6A03F00203002BEED146
:1025FC00FB7D012B05D1484BDB69474A23F0805307
:10260C00D3617B68DB69002B00F08180424B5B68F7
:10261C0003F00C03082B61D07B68DB69022B46D1DD
:10262C003F4B00221A60FFF723FB386108E0FFF7ED
:10263C001FFB02463B69D31A022B01D9032367E027
:10264C00354B1B6803F00073002BF0D17B681B6AC1
:10265C00B3F5803F08D1304B5B6823F400327B68C4
:10266C009B682D4913434B602B4B5B6823F474120E
:10267C007B68196A7B685B6A0B43274913434B6081
:10268C00274B01221A60FFF7F3FA386108E0FFF7D5
:10269C00EFFA02463B69D31A022B01D9032337E028
:1026AC001D4B1B6803F00073002BF0D02FE01C4B6C
:1026BC0000221A60FFF7DCFA386108E0FFF7D8FA5D
:1026CC0002463B69D31A022B01D9032320E0124B9B
:1026DC001B6803F00073002BF0D118E07B68DB69FA
:1026EC00012B01D1012313E00B4B5B68FB60FB68F2
:1026FC0003F480327B681B6A9A4206D1FB6803F4B0
:10270C0070127B685B6A9A4201D0012300E00023BF
:10271C0018461837BD4680BD0010024000700040BE
:10272C006000424280B584B000AF786039607B684D
:10273C00002B01D10123D0E06A4B1B6803F0070387
:10274C003A689A4210D9674B1B6823F00702654917
:10275C003B6813430B60634B1B6803F007033A6839
:10276C009A4201D00123B8E07B681B6803F0020396
:10277C00002B20D07B681B6803F00403002B05D0D2
:10278C00594B5B68584A43F4E06353607B681B68A1
:10279C0003F00803002B05D0534B5B68524A43F4FB
:1027AC0060535360504B5B6823F0F0027B689B686E
:1027BC004D4913434B607B681B6803F00103002BEE
:1027CC0040D07B685B68012B07D1474B1B6803F437
:1027DC000033002B15D101237FE07B685B68022B53
:1027EC0007D1414B1B6803F00073002B09D1012367
:1027FC0073E03D4B1B6803F00203002B01D1012356
:10280C006BE0394B5B6823F003027B685B683649ED
:10281C0013434B60FFF72CFAF8600AE0FFF728FA35
:10282C000246FB68D31A41F28832934201D9032342
:10283C0053E02D4B5B6803F00C027B685B689B00DC
:10284C009A42EBD1274B1B6803F007033A689A4274
:10285C0010D2244B1B6823F0070222493B68134318
:10286C000B60204B1B6803F007033A689A4201D0B7
:10287C00012332E07B681B6803F00403002B08D0B3
:10288C00194B5B6823F4E0627B68DB6816491343E1
:10289C004B607B681B6803F00803002B09D0124BBC
:1028AC005B6823F460527B681B69DB000E491343A1
:1028BC004B6000F021F802460B4B5B681B0903F0E0
:1028CC000F030A49CB5C22FA03F3094A1360094B44
:1028DC001B681846FFF78AF9002318461037BD46C7
:1028EC0080BD00BF002002400010024010320008E2
:1028FC00840000208800002080B487B000AF002343
:10290C00FB600023BB6000237B6100237B60002302
:10291C003B611E4B5B68FB60FB6803F00C03042BF4
:10292C0002D0082B03D027E0194B3B6127E0FB6852
:10293C009B0C03F00F03174AD35C7B60FB6803F41A
:10294C008033002B10D0114B5B685B0C03F0010340
:10295C00114AD35CBB607B680D4A02FB03F2BB6877
:10296C00B2FBF3F37B6104E07B680C4A02FB03F3DC
:10297C007B617B693B6102E0054B3B6100BF3B69BE
:10298C0018461C37BD4680BC704700BF0010024083
:10299C0000127A00203200083032000800093D0095
:1029AC0080B485B000AF78600A4B1B680A4AA2FB62
:1029BC0003235B0A7A6802FB03F3FB6000BFFB682E
:1029CC005A1EFA60002BF9D100BF00BF1437BD4668
:1029DC0080BC704784000020D34D621080B582B05B
:1029EC0000AF78607B68002B01D1012341E07B684C
:1029FC0093F83D30DBB2002B06D17B68002283F8C4
:102A0C003C207868FEF778FF7B68022283F83D2033
:102A1C007B681A687B6804331946104600F056FA36
:102A2C007B68012283F846207B68012283F83E20D4
:102A3C007B68012283F83F207B68012283F84020C9
:102A4C007B68012283F841207B68012283F84220B5
:102A5C007B68012283F843207B68012283F84420A1
:102A6C007B68012283F845207B68012283F83D2096
:102A7C00002318460837BD4680BD000080B485B0E1
:102A8C0000AF78607B6893F83D30DBB2012B01D04E
:102A9C00012335E07B68022283F83D207B681B68AC
:102AAC00DA687B681B6842F00102DA607B681B689D
:102ABC00164A934209D07B681B68B3F1804F04D04F
:102ACC007B681B68124A934211D17B681B689B6818
:102ADC0003F00703FB60FB68062B10D07B681B68B8
:102AEC001A687B681B6842F001021A6007E07B6879
:102AFC001B681A687B681B6842F001021A6000238D
:102B0C0018461437BD4680BC704700BF002C0140EE
:102B1C000004004080B584B000AF78607B681B680F
:102B2C00DB68FB607B681B681B69BB60BB6803F0E0
:102B3C000203002B20D0FB6803F00203002B1BD0F8
:102B4C007B681B686FF002021A617B6801221A779E
:102B5C007B681B689B6903F00303002B03D0786828
:102B6C0000F098F905E0786800F08BF9786800F0CF
:102B7C009AF97B6800221A77BB6803F00403002BD8
:102B8C0020D0FB6803F00403002B1BD07B681B6870
:102B9C006FF004021A617B6802221A777B681B684B
:102BAC009B6903F44073002B03D0786800F072F932
:102BBC0005E0786800F065F9786800F074F97B68D6
:102BCC0000221A77BB6803F00803002B20D0FB68A7
:102BDC0003F00803002B1BD07B681B686FF0080206
:102BEC001A617B6804221A777B681B68DB6903F027
:102BFC000303002B03D0786800F04CF905E07868EB
:102C0C0000F03FF9786800F04EF97B6800221A77E3
:102C1C00BB6803F01003002B20D0FB6803F01003FB
:102C2C00002B1BD07B681B686FF010021A617B684D
:102C3C0008221A777B681B68DB6903F44073002B4E
:102C4C0003D0786800F026F905E0786800F019F9EF
:102C5C00786800F028F97B6800221A77BB6803F0CB
:102C6C000103002B0CD0FB6803F00103002B07D0F1
:102C7C007B681B686FF001021A617868FEF70AFC2A
:102C8C00BB6803F08003002B0CD0FB6803F08003BF
:102C9C00002B07D07B681B686FF080021A61786884
:102CAC0000F06FFABB6803F04003002B0CD0FB68FC
:102CBC0003F04003002B07D07B681B686FF04002C9
:102CCC001A61786800F0F8F8BB6803F02003002B59
:102CDC000CD0FB6803F02003002B07D07B681B682B
:102CEC006FF020021A61786800F042FA00BF1037CA
:102CFC00BD4680BD80B584B000AF786039600023DC
:102D0C00FB737B6893F83C30012B01D10223B4E0B8
:102D1C007B68012283F83C207B68022283F83D20EB
:102D2C007B681B689B68BB60BB6823F07703BB6048
:102D3C00BB6823F47F43BB607B681B68BA689A60EE
:102D4C003B681B68B3F5005F3ED0B3F5005F00F243
:102D5C008780B3F5805F00F08680B3F5805F7FD805
:102D6C00702B1AD0702B7BD8602B50D0602B77D85F
:102D7C00502B3CD0502B73D8402B58D0402B6FD8B5
:102D8C00302B64D0302B6BD8202B60D0202B67D805
:102D9C00002B5CD0102B5AD062E07B6818683B6823
:102DAC0099683B685A683B68DB6800F06AF97B6895
:102DBC001B689B68BB60BB6843F07703BB607B6898
:102DCC001B68BA689A604FE07B6818683B68996822
:102DDC003B685A683B68DB6800F053F97B681B68FA
:102DEC009A687B681B6842F480429A603CE07B687E
:102DFC0018683B6859683B68DB681A4600F0CAF8EB
:102E0C007B681B685021184600F021F92CE07B6888
:102E1C0018683B6859683B68DB681A4600F0E8F8AC
:102E2C007B681B686021184600F011F91CE07B6878
:102E3C0018683B6859683B68DB681A4600F0AAF8CA
:102E4C007B681B684021184600F001F90CE07B6898
:102E5C001A683B681B681946104600F0F8F803E046
:102E6C000123FB7300E000BF7B68012283F83D2047
:102E7C007B68002283F83C20FB7B18461037BD464C
:102E8C0080BD80B483B000AF786000BF0C37BD4606
:102E9C0080BC704780B483B000AF786000BF0C3743
:102EAC00BD4680BC704780B483B000AF786000BF73
:102EBC000C37BD4680BC704780B483B000AF7860DF
:102ECC0000BF0C37BD4680BC7047000080B485B095
:102EDC0000AF786039607B681B68FB607B682B4AAD
:102EEC00934207D07B68B3F1804F03D07B68284AAC
:102EFC00934208D1FB6823F07003FB603B685B686E
:102F0C00FA681343FB607B68204A934207D07B68C6
:102F1C00B3F1804F03D07B681D4A934208D1FB6804
:102F2C0023F44073FB603B68DB68FA681343FB6077
:102F3C00FB6823F080023B685B691343FB607B6892
:102F4C00FA681A603B689A687B68DA623B681A68B0
:102F5C007B689A627B680D4A934203D13B681A697D
:102F6C007B681A637B6801225A617B681B6903F0DA
:102F7C000103002B05D07B681B6923F001027B68E1
:102F8C001A6100BF1437BD4680BC7047002C01404D
:102F9C000004004080B487B000AFF860B9607A607C
:102FAC00FB681B6A7B61FB681B6A23F00102FB68F0
:102FBC001A62FB689B693B613B6923F0F0033B6140
:102FCC007B681B013A6913433B617B6923F00A035D
:102FDC007B617A69BB6813437B61FB683A699A61D0
:102FEC00FB687A691A6200BF1C37BD4680BC70470B
:102FFC0080B487B000AFF860B9607A60FB681B6A78
:10300C007B61FB681B6A23F01002FB681A62FB6889
:10301C009B693B613B6923F470433B617B681B03F9
:10302C003A6913433B617B6923F0A0037B61BB6866
:10303C001B017A6913437B61FB683A699A61FB68EF
:10304C007A691A6200BF1C37BD4680BC704780B4D9
:10305C0085B000AF786039607B689B68FB60FB686B
:10306C0023F07003FB603A68FB68134343F00703DB
:10307C00FB607B68FA689A6000BF1437BD4680BC61
:10308C00704780B487B000AFF860B9607A603B607D
:10309C00FB689B687B617B6923F47F437B613B68A6
:1030AC001A027B681A43BB6813437A6913437B612A
:1030BC00FB687A699A6000BF1C37BD4680BC7047BC
:1030CC0080B485B000AF786039607B6893F83C3091
:1030DC00012B01D1022341E07B68012283F83C20C3
:1030EC007B68022283F83D207B681B685B68FB6071
:1030FC007B681B689B68BB60FB6823F07003FB60FC
:10310C003B681B68FA681343FB607B681B68FA68B2
:10311C005A607B681B68144A934209D07B681B6811
:10312C00B3F1804F04D07B681B68104A93420CD1DA
:10313C00BB6823F08003BB603B685B68BA681343D1
:10314C00BB607B681B68BA689A607B68012283F855
:10315C003D207B68002283F83C200023184614375E
:10316C00BD4680BC704700BF002C014000040040ED
:10317C0080B483B000AF786000BF0C37BD4680BC14
:10318C00704780B483B000AF786000BF0C37BD4689
:10319C0080BC704770B500260C4D0D4C641BA41000
:1031AC00A64209D100F022F800260A4D0A4C641BF5
:1031BC00A410A64205D170BD55F8043B98470136C2
:1031CC00EEE755F8043B98470136F2E73432000835
:1031DC003432000834320008383200080346024406
:1031EC00934200D1704703F8011BF9E7F8B500BF13
:1031FC00F8BC08BC9E467047F8B500BFF8BC08BCCC
:04320C009E46704723
:103210000000000000000000010203040607080986
:1032200002030405060708090A0B0C0D0E0F101007
:043230000102000097
:04323400310100085C
:043238000D0100087C
:10323C00C8000000000000000000000000000000BA
:10324C00010000000100000001000000010000006E
:10325C00010000000100000001000000010000005E
:10326C00010000000100000001000000010000004E
:10327C00010000000100000001000000010000003E
:10328C00000801400008014000080140000801400E
:10329C00400080000001004001000000010000001F
:1032AC000100000088130000D0070000B80B0000DC
:1032BC000100000000127A00100000000100000064
:0400000508001B8153
:00000001FF
