:020000040800F2
:1000000000280020411E00080D1C0008131C0008D9
:10001000191C00081F1C0008251C00080000000017
:100020000000000000000000000000002B1C000881
:10003000371C000800000000431C00084F1C00088B
:10004000891E0008891E0008891E0008891E0008F4
:10005000891E0008891E0008891E0008891E0008E4
:10006000891E0008891E0008891E0008891E0008D4
:10007000891E0008891E0008891E0008891E0008C4
:10008000891E0008891E0008891E0008891E0008B4
:10009000891E0008891E0008891E0008891E0008A4
:1000A000891E0008891E0008891E0008891E000894
:1000B0005D1C0008891E000800000000891E000861
:1000C000891E00080000000000000000891E0008D2
:1000D00000000000891E0008891E000800000000C2
:1000E000891E0008891E0008891E00080000000003
:1000F0000000000000000000000000000000000000
:0C01000000000000000000005FF808F1A3
:10010C0010B5054C237833B9044B13B10448AFF345
:10011C0000800123237010BD8C0000200000000023
:10012C00B834000808B5034B1BB103490348AFF3BF
:10013C00008008BD0000000090000020B8340008CA
:10014C0080B483B000AF7860094A7B6852F82330E2
:10015C00012B06D1064A7B68002142F823100123AB
:10016C0000E0002318460C37BD4680BC704700BF2A
:10017C00A800002080B582B000AF00237B607AE03D
:10018C00414A7B6852F8232040497B6841F8232080
:10019C003F4A7B6852F823203B497B6841F8232077
:1001AC003C4A7B6852F823203B497B6831F813307A
:1001BC001946104602F04EF903461946344A7B683C
:1001CC0042F82310314A7B6852F823202E497B6871
:1001DC0051F823309A424BD12B4A7B6852F823209A
:1001EC002B497B6851F823309A4241D12B4A7B68CA
:1001FC0052F8232026497B6851F823309A4218D0B4
:10020C00234A7B6852F8232024497B6841F8232039
:10021C001F4A7B6852F82330002B29D1204A7B6877
:10022C00012142F823101F4A7B68C82142F8231091
:10023C001EE0174A7B6852F82330002B18D1194A5C
:10024C007B6852F823305A1E16497B6841F82320EC
:10025C00144A7B6852F82330002B09D1104A7B6872
:10026C00012142F823100F4A7B68C82142F8231061
:10027C007B6801337B607B68032B81DD00BF00BF93
:10028C000837BD4680BD00BF2000002010000020B4
:10029C0030000020500000206000002040000020B2
:1002AC00A80000200000002080B582B000AF78606C
:1002BC007B68092B00F2808101A252F823F000BF69
:1002CC00F50200083D03000885030008CD03000873
:1002DC00150400085D040008A5040008ED040008DE
:1002EC00350500087D05000800220121B54802F003
:1002FC00C8F800220221B34802F0C3F800220421FE
:10030C00B04802F0BEF800220821AE4802F0B9F85D
:10031C0000221021AB4802F0B4F800222021A94899
:10032C0002F0AFF801224021A64802F0AAF844E1FD
:10033C0001220121A34802F0A4F800220221A148C5
:10034C0002F09FF8002204219E4802F09AF8012244
:10035C0008219C4802F095F801221021994802F0DE
:10036C0090F801222021974802F08BF801224021BD
:10037C00944802F086F820E100220121914802F015
:10038C0080F8002202218F4802F07BF80122042120
:10039C008C4802F076F8002208218A4802F071F8A5
:1003AC0000221021874802F06CF801222021854898
:1003BC0002F067F800224021824802F062F8FCE06B
:1003CC00002201217F4802F05CF8002202217D48C6
:1003DC0002F057F8002204217A4802F052F8002269
:1003EC000821784802F04DF801221021754802F0DE
:1003FC0048F801222021734802F043F800224021E2
:10040C00704802F03EF8D8E0012201216D4802F05C
:10041C0038F8002202216B4802F033F80022042144
:10042C00684802F02EF801220821664802F029F8EB
:10043C0001221021634802F024F800222021614897
:10044C0002F01FF8002240215E4802F01AF8B4E0D6
:10045C00002201215B4802F014F8012202215948C4
:10046C0002F00FF800220421564802F00AF800228C
:10047C000821544802F005F801221021514802F0DD
:10048C0000F8002220214F4801F0FBFF0022402100
:10049C004C4801F0F6FF90E000220121494801F0A0
:1004AC00F0FF01220221474801F0EBFF002204215A
:1004BC00444801F0E6FF00220821424801F0E1FF28
:1004CC00002210213F4801F0DCFF002220213D4892
:1004DC0001F0D7FF002240213A4801F0D2FF6CE036
:1004EC0000220121374801F0CCFF002202213548BF
:1004FC0001F0C7FF00220421324801F0C2FF0122A3
:10050C000821304801F0BDFF012210212D4801F0D7
:10051C00B8FF012220212B4801F0B3FF012240211A
:10052C00284801F0AEFF48E000220121254801F0E7
:10053C00A8FF00220221234801F0A3FF002204217E
:10054C00204801F09EFF002208211E4801F099FF6F
:10055C00002210211B4801F094FF00222021194891
:10056C0001F08FFF00224021164801F08AFF24E0A1
:10057C0000220121134801F084FF002202211148BE
:10058C0001F07FFF002204210E4801F07AFF0022C7
:10059C0008210C4801F075FF01221021094801F0D7
:1005AC0070FF00222021074801F06BFF0022402140
:1005BC00044801F066FF00E000BF00BF0837BD46ED
:1005CC0080BD00BF000C014080B582B000AF7860E8
:1005DC007B68092B00F2BC8101A252F823F000BF0A
:1005EC001506000869060008BD060008110700087A
:1005FC0065070008B90700080D0800086108000825
:10060C00B50800080909000800228021D34801F030
:10061C0038FF00224FF48071D04801F032FF0022E5
:10062C004FF40071CD4801F02CFF00224FF4806193
:10063C00CA4801F026FF00224FF40061C74801F0C0
:10064C0020FF00224FF48051C44801F01AFF012210
:10065C004FF40051C14801F014FF7AE101228021CE
:10066C00BE4801F00EFF00224FF48071BB4801F030
:10067C0008FF00224FF40071B84801F002FF01227C
:10068C004FF48061B54801F0FCFE01224FF400618B
:10069C00B24801F0F6FE01224FF48051AF4801F050
:1006AC00F0FE01224FF40051AC4801F0EAFE50E19B
:1006BC0000228021A94801F0E4FE00224FF4807151
:1006CC00A64801F0DEFE01224FF40071A34801F0B0
:1006DC00D8FE00224FF48061A04801F0D2FE002227
:1006EC004FF400619D4801F0CCFE01224FF4805183
:1006FC009A4801F0C6FE00224FF40051974801F0D1
:10070C00C0FE26E100228021944801F0BAFE0022AE
:10071C004FF48071914801F0B4FE00224FF4007147
:10072C008E4801F0AEFE00224FF480618B4801F040
:10073C00A8FE01224FF40061884801F0A2FE0122BC
:10074C004FF48051854801F09CFE00224FF400517B
:10075C00824801F096FEFCE0012280217F4801F0E6
:10076C0090FE00224FF480717C4801F08AFE00223A
:10077C004FF40071794801F084FE01224FF480613E
:10078C00764801F07EFE01224FF40061734801F0BF
:10079C0078FE00224FF48051704801F072FE002266
:1007AC004FF400516D4801F06CFED2E00022802124
:1007BC006A4801F066FE01224FF48071674801F02F
:1007CC0060FE00224FF40071644801F05AFE0022D2
:1007DC004FF48061614801F054FE01224FF4006136
:1007EC005E4801F04EFE00224FF480515B4801F050
:1007FC0048FE00224FF40051584801F042FEA8E098
:10080C0000228021554801F03CFE01224FF48071FA
:10081C00524801F036FE00224FF400714F4801F0AF
:10082C0030FE00224FF480614C4801F02AFE002279
:10083C004FF40061494801F024FE00224FF480512E
:10084C00464801F01EFE00224FF40051434801F0CF
:10085C0018FE7EE000228021404801F012FE0022AA
:10086C004FF480713D4801F00CFE00224FF40071F2
:10087C003A4801F006FE01224FF48061374801F03E
:10088C0000FE01224FF40061344801F0FAFD012210
:10089C004FF48051314801F0F4FD01224FF4005126
:1008AC002E4801F0EEFD54E0002280212B4801F08F
:1008BC00E8FD00224FF48071284801F0E2FD00228F
:1008CC004FF40071254801F0DCFD00224FF48061EB
:1008DC00224801F0D6FD00224FF400611F4801F0C0
:1008EC00D0FD00224FF480511C4801F0CAFD0022BB
:1008FC004FF40051194801F0C4FD2AE00022802178
:10090C00164801F0BEFD00224FF48071134801F02F
:10091C00B8FD00224FF40071104801F0B2FD002226
:10092C004FF480610D4801F0ACFD01224FF40061E1
:10093C000A4801F0A6FD00224FF48051074801F04F
:10094C00A0FD00224FF40051044801F09AFD00E094
:10095C0000BF00BF0837BD4680BD00BF000C014082
:10096C0080B500AF3A4B1B68002B02D0012B35D061
:10097C006CE000224FF48051364801F082FD0122D8
:10098C004FF40051334801F07CFD334B1B68334A64
:10099C0082FB03129210DB17D31A1846FFF784FC64
:1009AC002D4B1A682D4B83FB02139910D317C91AC0
:1009BC000B469B000B445B00D11A0846FFF704FE64
:1009CC00032001F083F80346012B3CD13221032094
:1009DC0001F064F81E4B01221A6034E001224FF43E
:1009EC0080511C4801F04DFD00224FF40051194874
:1009FC0001F047FD1A4B1B68184A82FB0312921038
:100A0C00DB17D31A1846FFF74FFC154B1A68134B1C
:100A1C0083FB02139910D317C91A0B469B000B4486
:100A2C005B00D11A0846FFF7CFFD032001F04EF80A
:100A3C000346012B09D13221032001F02FF8044B7E
:100A4C0000221A6001E000BF00E000BF00BF80BDC3
:100A5C00B800002000080140C000002067666666F0
:100A6C00C400002080B500AF3C4B1B68052B12D195
:100A7C0000224FF480513A4801F003FD01224FF45B
:100A8C000051374801F0FDFC0020FFF70DFC05205C
:100A9C00FFF79AFD60E0334B1B68002B02D0012B53
:100AAC0022D059E000224FF480512D4801F0E9FC8E
:100ABC0001224FF400512A4801F0E3FC0020FFF71B
:100ACC00F3FB264B1B681846FFF77EFD032000F056
:100ADC00FDFF0346012B3CD13221032000F0DEFF49
:100AEC00204B01221A6034E001224FF480511C4843
:100AFC0001F0C7FC00224FF40051194801F0C1FC71
:100B0C00194B1B68194A82FB03129210DB17D31A7C
:100B1C001846FFF7C9FB144B1A68144B83FB0213DE
:100B2C009910D317C91A0B469B000B445B00D11AC2
:100B3C000846FFF749FD032000F0C8FF0346012BD0
:100B4C0009D13221032000F0A9FF064B00221A60C4
:100B5C0001E000BF00E000BF80BD00BF70000020BE
:100B6C0000080140B8000020BC00002067666666E3
:100B7C0080B500AFA94B1B68012B40F04481A84BFA
:100B8C001B68013B032B00F2988001A252F823F062
:100B9C00AD0B0008DD0B00082B0C0008790C0008CD
:100BAC0001F072F801F0B4F801F090F89C4B0222BD
:100BBC001A609C4B1B689C4A82FB03129211DB1738
:100BCC00D31A9A4A13606421012000F067FF7BE07E
:100BDC0001F04EF801F09CF801F078F8012000F0DB
:100BEC0075FF0346012B6AD1904B1B68013B8F4A62
:100BFC0013606421012000F051FF8C4B1B68002B0B
:100C0C005DDC874B03221A60894B1B68864A82FB8A
:100C1C0003129211DB17D31A844A13604FE001F0D0
:100C2C0033F801F069F801F051F8012000F04EFFA3
:100C3C000346012B45D17D4B1B68013B7B4A13605E
:100C4C006421012000F02AFF784B1B68002B38DC54
:100C5C00734B04221A60774B1B68734A82FB031296
:100C6C009211DB17D31A714A13602AE001F00CF8C9
:100C7C0001F04EF801F01EF8012000F027FF0346AA
:100C8C00012B20D1694B1B68013B684A136064211E
:100C9C00012000F003FF654B1B68002B13DC604B3D
:100CAC0002221A605F4B1B685F4A82FB031292118F
:100CBC00DB17D31A5D4A136005E000BF04E000BFE8
:100CCC0002E000BF00E000BF5B4B1B68013B032B45
:100CDC0000F29B8001A252F823F000BFF90C00082F
:100CEC00290D0008770D0008C50D000801F032F839
:100CFC0001F078F801F052F84F4B03221A604C4B7C
:100D0C001B68494A82FB03129211DB17D31A4B4A18
:100D1C0013606421022000F0C1FE7DE001F00EF8AA
:100D2C0001F060F801F03AF8022000F0CFFE034623
:100D3C00012B6CD1414B1B68013B404A1360642171
:100D4C00022000F0ABFE3D4B1B68002B5FD13A4BF1
:100D5C0003221A60364B1B68334A82FB0312921132
:100D6C00DB17D31A354A136051E000F0F3FF01F0A2
:100D7C002DF801F013F8022000F0A8FE0346012B19
:100D8C0047D12E4B1B68013B2C4A13606421022077
:100D9C0000F084FE294B1B68002B3AD1264B042211
:100DAC001A60244B1B68204A82FB03129211DB173A
:100DBC00D31A224A13602CE000F0CCFF01F012F899
:100DCC0000F0E0FF022000F081FE0346012B22D14F
:100DDC001A4B1B68013B194A13606421022000F076
:100DEC005DFE164B1B68002B15D1134B02221A60AB
:100DFC000C4B1B680C4A82FB03129211DB17D31AA3
:100E0C000E4A136007E000BF06E000BF04E000BF1D
:100E1C0002E000BF00E000BF80BD00BF70000020FA
:100E2C006800002074000020D34D6210C000002028
:100E3C007C000020780000206C000020C400002002
:100E4C0080B500AFB24B1B68013B042B00F2508104
:100E5C0001A252F823F000BF790E0008C90E000859
:100E6C00770F000823100008D3100008FFF778FD57
:100E7C000020FFF765F90346012B0FD13221042026
:100E8C0000F00CFEA24B02221A60A24B01221A6047
:100E9C0000F0C0FF3221032000F000FE0320FFF71A
:100EAC004FF90346012B40F02781994B05221A601C
:100EBC00994B00221A6000F0ADFF1DE1042000F0F8
:100ECC0005FE0346012B07D13221042000F0E6FD7C
:100EDC0000F0E6FE00F04AFF0120FFF731F903466F
:100EEC00012B0BD18B4B1B6801338A4A1360894B46
:100EFC001B68632B02DD874B00221A600220FFF770
:100F0C001FF90346012B0AD1824B1B684FF47A72EE
:100F1C0002FB03F3814A13607E4B01221A60FFF738
:100F2C00A1FD0020FFF70CF90346012B0DD1322156
:100F3C00042000F0B3FD764B03221A60754B01229E
:100F4C001A6000F0A1FE00F005FF0320FFF7F8F88F
:100F5C000346012B40F0D2806D4B05221A606E4B7C
:100F6C0000221A6000F056FFC8E0042000F0AEFD2D
:100F7C000346012B07D13221042000F08FFD00F035
:100F8C00B1FE00F017FF0120FFF7DAF80346012B42
:100F9C000BD1604B1B6801335E4A13605D4B1B68C1
:100FAC00632B02DD5B4B00221A600220FFF7C8F8AE
:100FBC000346012B0AD1574B1B684FF47A7202FB84
:100FCC0003F3574A1360534B01221A60FFF74AFD93
:100FDC000020FFF7B5F80346012B0DD13221042078
:100FEC0000F05CFD4A4B04221A604A4B01221A6045
:100FFC0000F06CFE00F0D2FE0320FFF7A1F80346D0
:10100C00012B7DD1424B05221A60434B00221A6002
:10101C0000F000FF74E0042000F058FD0346012BA3
:10102C0007D13221042000F039FD00F07DFE00F0E4
:10103C00E5FE0120FFF784F80346012B0BD1354B5D
:10104C001B680133334A1360324B1B68632B02DD80
:10105C00304B00221A600220FFF772F80346012B76
:10106C000AD12C4B1B684FF47A7202FB03F32D4A06
:10107C001360284B01221A60FFF7F4FC0020FFF7E5
:10108C005FF80346012B0FD1214B01221A60214B33
:10109C0001221A60244B01221A60244B01221A608F
:1010AC0000F036FE00F09EFE0320FFF749F80346E1
:1010BC00012B27D1164B05221A60174B00221A6000
:1010CC0000F0A8FE1EE00320FFF73AF80346012BC0
:1010DC001AD10F4B01221A600F4B00221A60124BCF
:1010EC0001221A60114B01221A6000F093FE0BE0F2
:1010FC00074B01221A6008E000BF06E000BF04E0C5
:10110C0000BF02E000BF00E000BF00BF80BD00BF19
:10111C0070000020BC000020C800002074000020DB
:10112C00780000207C000020680000206C0000206B
:10113C0080B500AF3C4B1B68052B6DD13B4B1B683E
:10114C00022B4DD0022B63DC002B02D0012B2FD0B5
:10115C005EE000F05FFEFFF785FC0120FEF7F0FF7C
:10116C000346012B0ED1314B01221A6000F080FD99
:10117C0000F0CEFD00F0AAFD00F0ECFD00F026FE24
:10118C0000F00CFE0220FEF7DBFF0346012B45D1DD
:10119C00264B02221A6000F077FD00F0ADFD00F046
:1011AC0095FD00F0CBFD00F01DFE00F0F7FD35E0E5
:1011BC00FFF758FC0220FEF7C3FF0346012B2FD18B
:1011CC001A4B02221A6000F05FFD00F095FD00F052
:1011DC007DFD00F0B3FD00F005FE00F0DFFD1FE02B
:1011EC00FFF740FC0120FEF7ABFF0346012B19D1A2
:1011FC000E4B01221A6000F03BFD00F089FD00F05F
:10120C0065FD00F0A7FD00F0E1FD00F0C7FD09E071
:10121C00064B00221A6006E000BF04E000BF02E0AB
:10122C0000BF00E000BF80BD70000020C80000209F
:10123C0080B500AF2021024801F03BF900BF80BD12
:10124C000008014080B500AF00F01AFE00F054F821
:10125C0000F0DAF800F08CF81D4801F06FFD00F09A
:10126C0047F9642200211B4800F08EF9322103203B
:10127C0000F014FC01220021174800F085F901222E
:10128C000021164800F080F9154B01221A60154B0D
:10129C0001221A6000224FF48051134801F0F1F83A
:1012AC0000224FF40051104801F0EBF8012200210C
:1012BC000E4800F069F9012200210D4800F064F994
:1012CC00012200210B4800F05FF900F0A7FBFCE7BE
:1012DC00640200203D120008011B00088101000877
:1012EC00680000206C000020000801407D0B000805
:1012FC004D0E00083D11000880B590B000AF07F10D
:10130C00180328220021184602F0C8F83B1D0022C1
:10131C001A605A609A60DA601A610223BB61012379
:10132C00BB621023FB6200237B6307F11803184692
:10133C0001F0D8F80346002B01D000F0D3F80F23AE
:10134C007B600023BB600023FB6000233B61002318
:10135C007B613B1D0021184601F044FB0346002B2A
:10136C0001D000F0BFF800BF4037BD4680BD000083
:10137C0080B586B000AF07F1080300221A605A60EE
:10138C009A60DA603B4600221A605A601D4B4FF09F
:10139C0080421A601B4B41F63F725A60194B002277
:1013AC009A60184B0922DA60164B00221A61154B11
:1013BC0000229A61134801F071FC0346002B01D006
:1013CC0000F090F84FF48053BB6007F10803194606
:1013DC000C4801F0EFFD0346002B01D000F082F821
:1013EC0000233B6000237B603B461946054801F017
:1013FC00C7FF0346002B01D000F074F800BF18376C
:10140C00BD4680BD6402002080B586B000AF07F1F8
:10141C00080300221A605A609A60DA60294B9B69B3
:10142C00284A43F004039361264B9B6903F00403A1
:10143C007B607B68234B9B69224A43F008039361D2
:10144C00204B9B6903F008033B603B68002243F68A
:10145C003C611D4801F015F8002243F6FF711B4852
:10146C0001F00FF843F63C63BB600123FB600023E3
:10147C003B6102237B6107F108031946124800F017
:10148C006FFE44F2C013BB600023FB6001233B6181
:10149C0007F1080319460C4800F062FE43F6FF738F
:1014AC00BB600123FB6000233B6102237B6107F1DE
:1014BC0008031946054800F053FE00BF1837BD4617
:1014CC0080BD00BF0010024000080140000C01402C
:1014DC0080B582B000AF786000F02EF800BF0837FE
:1014EC00BD4680BD80B400AF72B600BFFEE7000001
:1014FC0080B582B000AF00237B600EE00C497A68A7
:10150C0013469B0013449B000B4410331B68184676
:10151C0000F090F97B6801337B607B68132BEDDD69
:10152C00044B00221A6000BF0837BD4680BD00BFC7
:10153C00CC0000205C02002080B400AF104B1B6874
:10154C0001330F4A13600F4B1B68002B13D00D4B4C
:10155C001B7B002B0FD10B4B5B68002B04D0094B72
:10156C005B68013B074A5360064B5B68002B02D15A
:10157C00044B01221A7300BFBD4680BC704700BFEC
:10158C0060020020CC00002090B589B000AFF8605C
:10159C00B9607A600023FB770023BB6100233B61B9
:1015AC000023FB7733E1FA7FA14913469B001344D8
:1015BC009B000B4404331B68BA691344BB61BA69C2
:1015CC00BB689A4240F2C180FA7F994913469B004E
:1015DC0013449B000B4404331A68BB69D31ABA68D2
:1015EC0013443B61FA7FB969BB68C91A904813462A
:1015FC009B0013449B000344043319601323FB75B5
:10160C004CE0FB7D591EFA7D89480B469B000B4430
:10161C009B0003441968864813469B0013449B00A7
:10162C0003441960FB7D591EFA7D81480B469B00D3
:10163C000B449B000344083319687D4813469B00F8
:10164C0013449B00034408331960FB7D591EFA7D3B
:10165C0077480B469B000B449B00034404331968EA
:10166C00734813469B0013449B00034404331960D6
:10167C00FB7D591EFA7D6E480B469B000B449B006C
:10168C000344103319686A4813469B0013449B00AB
:10169C00034410331960FB7D013BFB75FA7DFB7F26
:1016AC009A42AED8FA7F624913469B0013449B00C2
:1016BC000B44FA681A60FA7F5D4913469B00134489
:1016CC009B000B4404333A691A60FA7F584913465D
:1016DC009B0013449B000B4408337A681A60FA7F12
:1016EC00534913469B0013449B000B4404331B6863
:1016FC00002B0AD1FA7F4E4913469B0013449B00E2
:10170C000B440C3301221A7009E0FA7F4849134646
:10171C009B0013449B000B440C3300221A70FC7F7B
:10172C0000F0A4F90246424923469B0023449B0047
:10173C000B4410331A60FA7F3D4913469B00134447
:10174C009B000B4410331B686EE0FA7F384913463C
:10175C009B0013449B000B441B68002B54D1FA7F55
:10176C00334913469B0013449B000B44FA681A60E0
:10177C00FA7FB968BB69C91A2D4813469B001344FC
:10178C009B00034404331960FA7F294913469B00DC
:10179C0013449B000B4408337A681A60FA7F24497F
:1017AC0013469B0013449B000B4404331B68002B13
:1017BC000AD1FA7F1E4913469B0013449B000B442D
:1017CC000C3301221A7009E0FA7F194913469B0069
:1017DC0013449B000B440C3300221A70FC7F00F066
:1017EC0045F90246124923469B0023449B000B44B7
:1017FC0010331A60FA7F0E4913469B0013449B006A
:10180C000B4410331B680FE0FB7F0133FB77FB7F2E
:10181C00132B7FF6C8AEFA7F054913469B00134481
:10182C009B000B4410331B6818462437BD4690BDF3
:10183C00CC00002080B485B000AF786000237B73AF
:10184C007B68002B00F0E2800023FB73DAE0FA7B6C
:10185C00714913469B0013449B000B4410331B68C7
:10186C007A689A4240F0CB8001237B73FB7B002B80
:10187C002BD0FB7B122B28D8FB7B5A1C66491346BA
:10188C009B0013449B000B441B68002B1DD0FB7B5F
:10189C005A1C614913469B0013449B000B440433B0
:1018AC001968FA7B5C4813469B0013449B00034465
:1018BC0004331B68FA7B01321944574813469B00CA
:1018CC0013449B00034404331960FB7BBB7360E03F
:1018DC00BB7B591CBA7B50480B469B000B449B00AE
:1018EC00034419684C4813469B0013449B00034463
:1018FC001960BB7B591CBA7B47480B469B000B44B9
:10190C009B00034408331968434813469B00134457
:10191C009B00034408331960BB7B591CBA7B3E48BF
:10192C000B469B000B449B000344043319683A4854
:10193C0013469B0013449B00034404331960BB7B88
:10194C00591CBA7B34480B469B000B449B00034448
:10195C000C331878304913469B0013449B000B44FE
:10196C000C3302461A70BB7B591CBA7B2A480B46B7
:10197C009B000B449B000344103319682648134604
:10198C009B0013449B00034410331960BB7B013351
:10199C00BB73BB7B122B9BD9BA7B1F4913469B0095
:1019AC0013449B000B4400221A60BA7B1A4913465D
:1019BC009B0013449B000B44083300221A60BA7B33
:1019CC00154913469B0013449B000B44043300221F
:1019DC001A60BA7B104913469B0013449B000B44BE
:1019EC000C3300221A70BA7B0B4913469B0013442C
:1019FC009B000B44103300221A607B7B07E0FB7BBF
:101A0C000133FB73FB7B132B7FF621AF7B7B1846DB
:101A1C001437BD4680BC7047CC000020B0B586B0F2
:101A2C0000AF114B1B7B002B19D00F4B1B68984739
:101A3C000D4B00221A730C4B3C1D1D460FCD0FC4D1
:101A4C002B6823607B691846FFF7F4FEFB68002BBC
:101A5C0005D07B68F968FA681846FFF795FD00BF5A
:101A6C001837BD46B0BD00BFCC00002080B400AF1D
:101A7C00094B1B680133084A1360074B1B68002B8A
:101A8C0004D1054B1B680133034A1360024B1B68DE
:101A9C001846BD4680BC70475C02002080B483B001
:101AAC0000AF7860396007497B683A6841F82320B9
:101ABC00054A7B68002142F8231000BF0C37BD4655
:101ACC0080BC7047AC020020FC02002080B483B0C4
:101ADC0000AF7860064A7B6852F82330012B01D1A5
:101AEC00012300E0002318460C37BD4680BC70472C
:101AFC00FC02002080B483B000AF00237B601CE0AC
:101B0C00124A7B6852F82330002B13DD0F4A7B6896
:101B1C0052F823305A1E0D497B6841F823200B4A9A
:101B2C007B6852F82330002B04DC094A7B680121C6
:101B3C0042F823107B6801337B607B68132BDFDD5D
:101B4C0000BF00BF0C37BD4680BC7047AC02002004
:101B5C00FC02002080B485B000AF154B9B69144A81
:101B6C0043F001039361124B9B6903F00103BB60CB
:101B7C00BB680F4BDB690E4A43F08053D3610C4BAF
:101B8C00DB6903F080537B607B680A4B5B68FB600E
:101B9C00FB6823F0E063FB60FB6843F08063FB6051
:101BAC00044AFB68536000BF1437BD4680BC7047C5
:101BBC00001002400000014080B584B000AF786096
:101BCC007B681B68B3F1804F13D10C4BDB690B4A5C
:101BDC0043F00103D361094BDB6903F00103FB60A4
:101BEC00FB68002200211C2000F083FA1C2000F06E
:101BFC009CFA00BF1037BD4680BD00BF00100240EC
:101C0C0080B400AFFEE780B400AFFEE780B400AF55
:101C1C00FEE780B400AFFEE780B400AFFEE780B40F
:101C2C0000AF00BFBD4680BC704780B400AF00BFA2
:101C3C00BD4680BC704780B400AF00BFBD4680BCC1
:101C4C00704780B500AF00F061F900BF80BD0000A7
:101C5C0080B500AF024801F0BDF800BF80BD00BFE9
:101C6C006402002080B400AF00BFBD4680BC70474A
:101C7C0080B500AF00220421024800F002FC00BF36
:101C8C0080BD00BF0008014080B500AF01220421D7
:101C9C00024800F0F6FB00BF80BD00BF0008014009
:101CAC0080B500AF0421024800F003FC00BF80BDEA
:101CBC000008014080B500AF00220821024800F066
:101CCC00E0FB00BF80BD00BF0008014080B500AF45
:101CDC0001220821024800F0D4FB00BF80BD00BFE8
:101CEC000008014080B500AF0821024800F0E1FB7C
:101CFC0000BF80BD0008014080B500AF002210215C
:101D0C00024800F0BEFB00BF80BD00BF00080140D0
:101D1C0080B500AF01221021024800F0B2FB00BFD9
:101D2C0080BD00BF0008014080B500AF1021024803
:101D3C0000F0BFFB00BF80BD0008014080B500AFC4
:101D4C0000224FF40071024800F09BFB00BF80BDE5
:101D5C000008014080B500AF01224FF40071024829
:101D6C0000F08FFB00BF80BD0008014080B500AFC4
:101D7C004FF40071024800F09CFB00BF80BD00BF17
:101D8C000008014080B500AF00224FF4806102488A
:101D9C0000F077FB00BF80BD0008014080B500AFAC
:101DAC0001224FF48061024800F06BFB00BF80BD44
:101DBC000008014080B500AF4FF48061024800F08C
:101DCC0078FB00BF80BD00BF0008014080B500AFAC
:101DDC0000224FF40061024800F053FB00BF80BDAD
:101DEC000008014080B500AF01224FF400610248A9
:101DFC0000F047FB00BF80BD0008014080B500AF7C
:101E0C004FF40061024800F054FB00BF80BD00BFDE
:101E1C000008014080B500AFFFF77AFFFFF734FFF1
:101E2C00FFF754FFFFF7DEFFFFF794FFFFF7B6FF56
:101E3C0000BF80BDFFF716FF0B480C490C4A00236E
:101E4C0002E0D458C4500433C4188C42F9D3094A64
:101E5C00094C002301E013600432A242FBD301F0D1
:101E6C00F9FAFFF7EFF97047000000208C00002012
:101E7C00FC3400088C00002050030020FEE700001A
:101E8C0080B500AF084B1B68074A43F01003136082
:101E9C00032000F023F90F2000F008F8FFF75AFE9A
:101EAC000023184680BD00BF0020024080B582B0E0
:101EBC0000AF7860124B1A68124B1B7819464FF41E
:101ECC007A73B3FBF1F3B2FBF3F3184600F03BF972
:101EDC000346002B01D001230EE07B680F2B0AD8A0
:101EEC00002279684FF0FF3000F003F9064A7B6856
:101EFC001360002300E0012318460837BD4680BD5F
:101F0C0080000020880000208400002080B400AFF6
:101F1C00054B1B781A46054B1B681344034A136088
:101F2C0000BFBD4680BC7047880000204C030020D9
:101F3C0080B400AF024B1B681846BD4680BC70478E
:101F4C004C03002080B485B000AF78607B6803F050
:101F5C000703FB600C4BDB68BB60BA684FF6FF03F2
:101F6C001340BB60FB681A02BB68134343F0BF63AA
:101F7C0043F40033BB60044ABB68D36000BF143722
:101F8C00BD4680BC704700BF00ED00E080B400AFE0
:101F9C00044BDB681B0A03F007031846BD4680BCE4
:101FAC00704700BF00ED00E080B483B000AF034683
:101FBC00FB7197F90730002B0BDBFB7903F01F0249
:101FCC00064997F907305B09012000FA02F241F843
:101FDC00232000BF0C37BD4680BC704700E100E0F9
:101FEC0080B483B000AF03463960FB7197F90730BA
:101FFC00002B0ADB3B68DAB20C4997F90730120167
:10200C00D2B20B4483F800230AE03B68DAB20849E9
:10201C00FB7903F00F03043B1201D2B20B441A7686
:10202C0000BF0C37BD4680BC704700BF00E100E02C
:10203C0000ED00E080B489B000AFF860B9607A6060
:10204C00FB6803F00703FB61FB69C3F10703042B77
:10205C0028BF0423BB61FB690433062B02D9FB693F
:10206C00033B00E000237B614FF0FF32BB6902FAB7
:10207C0003F3DA43BB681A407B699A404FF0FF3197
:10208C007B6901FA03F3D9437B680B401343184671
:10209C002437BD4680BC704780B582B000AF7860F5
:1020AC007B68013BB3F1807F01D301230FE00A4A27
:1020BC007B68013B53600F214FF0FF30FFF790FF1F
:1020CC00054B00229A60044B07221A600023184625
:1020DC000837BD4680BD00BF10E000E080B582B07F
:1020EC0000AF78607868FFF72DFF00BF0837BD465A
:1020FC0080BD80B586B000AF0346B9607A60FB73D3
:10210C0000237B61FFF742FF78617A68B9687869D0
:10211C00FFF790FF024697F90F3011461846FFF76C
:10212C005FFF00BF1837BD4680BD80B582B000AFE1
:10213C000346FB7197F907301846FFF735FF00BFD0
:10214C000837BD4680BD80B582B000AF7860786836
:10215C00FFF7A2FF034618460837BD4680BD0000B6
:10216C0080B48BB000AF7860396000237B620023B1
:10217C003B6248E101227B6A02FA03F3FB613B6894
:10218C001B68FA691340BB61BA69FB699A4240F05B
:10219C0037813B685B68A34A93425ED0A14A934265
:1021AC0075D8A14A934258D09F4A93426FD89F4A00
:1021BC00934252D09D4A934269D89D4A93424CD047
:1021CC009B4A934263D89B4A934246D0994A934286
:1021DC005DD8122B2AD8122B59D801A252F823F011
:1021EC0067220008412200085322000895220008AB
:1021FC009B2200089B2200089B2200089B220008BF
:10220C009B2200089B2200089B2200089B220008AE
:10221C009B2200089B2200089B2200089B2200089E
:10222C009B220008492200085D220008824A934242
:10223C0013D02CE03B68DB683B6229E03B68DB6831
:10224C0004333B6224E03B68DB6808333B621FE0ED
:10225C003B68DB680C333B621AE03B689B68002BE5
:10226C0002D104233B6213E03B689B68012B05D130
:10227C0008233B627B68FA691A6109E008233B6218
:10228C007B68FA695A6103E000233B6200E000BFFF
:10229C00BB69FF2B01D87B6801E07B6804337B6151
:1022AC00BB69FF2B02D87B6A9B0002E07B6A083B70
:1022BC009B003B617B691A680F213B6901FA03F3B0
:1022CC00DB431A40396A3B6901FA03F31A437B6911
:1022DC001A603B685B6803F08053002B00F0908021
:1022EC00564B9B69554A43F001039361534B9B69D1
:1022FC0003F00103BB60BB68514A7B6A9B08023345
:10230C0052F82330FB607B6A03F003039B000F221F
:10231C0002FA03F3DB43FA681340FB607B68494A1B
:10232C0093420DD07B68484A934207D07B68474A5A
:10233C00934201D1022304E0032302E0012300E0D5
:10234C0000237A6A02F0030292009340FA68134366
:10235C00FB603B497B6A9B080233FA6841F82320F7
:10236C003B685B6803F48013002B06D0384B9A68EB
:10237C003749BB6913438B6006E0354B9A68BB69E0
:10238C00DB43334913408B603B685B6803F40013F9
:10239C00002B06D02E4BDA682D49BB691343CB605A
:1023AC0006E02B4BDA68BB69DB4329491340CB6051
:1023BC003B685B6803F40033002B06D0244B5A684F
:1023CC002349BB6913434B6006E0214B5A68BB6938
:1023DC00DB431F4913404B603B685B6803F480335D
:1023EC00002B06D01A4B1A681949BB6913430B60B2
:1023FC0006E0174B1A68BB69DB43154913400B60A9
:10240C007B6A01337B623B681A687B6A22FA03F3AE
:10241C00002B7FF4AFAE00BF00BF2C37BD4680BC95
:10242C00704700BF00003210000031100000221075
:10243C0000002110000012100000111000100240CA
:10244C000000014000080140000C01400010014058
:10245C000004014080B485B000AF78600B467B80EF
:10246C007B689A687B881340002B02D00123FB7396
:10247C0001E00023FB73FB7B18461437BD4680BC80
:10248C00704780B483B000AF78600B467B801346F6
:10249C007B707B78002B03D07A887B681A6103E011
:1024AC007B881A047B681A6100BF0C37BD4680BC60
:1024BC00704780B485B000AF78600B467B807B683A
:1024CC00DB68FB607A88FB6813401A04FB68D9430D
:1024DC007B880B401A437B681A6100BF1437BD46DA
:1024EC0080BC704780B586B000AF78607B68002BED
:1024FC0001D101236CE27B681B6803F00103002B04
:10250C0000F08780924B5B6803F00C03042B0CD01B
:10251C008F4B5B6803F00C03082B12D18C4B5B6860
:10252C0003F48033B3F5803F0BD1894B1B6803F464
:10253C000033002B6CD07B685B68002B68D10123C7
:10254C0046E27B685B68B3F5803F06D1804B1B6825
:10255C007F4A43F4803313602EE07B685B68002B6A
:10256C000CD17B4B1B687A4A23F480331360784B75
:10257C001B68774A23F4802313601DE07B685B683B
:10258C00B3F5A02F0CD1724B1B68714A43F4802316
:10259C0013606F4B1B686E4A43F4803313600BE07F
:1025AC006B4B1B686A4A23F480331360684B1B68BF
:1025BC00674A23F4802313607B685B68002B13D07D
:1025CC00FFF7B6FC386108E0FFF7B2FC02463B6946
:1025DC00D31A642B01D90323FAE15D4B1B6803F476
:1025EC000033002BF0D014E0FFF7A2FC386108E0B8
:1025FC00FFF79EFC02463B69D31A642B01D90323D7
:10260C00E6E1534B1B6803F40033002BF0D100E0E0
:10261C0000BF7B681B6803F00203002B63D04C4B9C
:10262C005B6803F00C03002B0BD0494B5B6803F089
:10263C000C03082B1CD1464B5B6803F48033002B36
:10264C0016D1434B1B6803F00203002B05D07B68AB
:10265C001B69012B01D00123BAE13D4B1B6823F010
:10266C00F8027B685B69DB00394913430B603AE085
:10267C007B681B69002B20D0364B01221A60FFF7B8
:10268C0057FC386108E0FFF753FC02463B69D31A4C
:10269C00022B01D903239BE12D4B1B6803F0020392
:1026AC00002BF0D02A4B1B6823F0F8027B685B6987
:1026BC00DB00274913430B6015E0264B00221A6000
:1026CC00FFF736FC386108E0FFF732FC02463B6945
:1026DC00D31A022B01D903237AE11D4B1B6803F09B
:1026EC000203002BF0D17B681B6803F00803002B5E
:1026FC003AD07B689B69002B19D0174B01221A60CA
:10270C00FFF716FC386108E0FFF712FC02463B6944
:10271C00D31A022B01D903235AE10D4B5B6A03F048
:10272C000203002BF0D0012000F09AFA1CE00A4BB7
:10273C0000221A60FFF7FCFB38610FE0FFF7F8FB93
:10274C0002463B69D31A022B08D9032340E100BF90
:10275C000010024000004242800442429E4B5B6AE1
:10276C0003F00203002BE9D17B681B6803F0040320
:10277C00002B00F0A6800023FB75974BDB6903F060
:10278C008053002B0DD1944BDB69934A43F080535B
:10279C00D361914BDB6903F08053BB60BB680123B1
:1027AC00FB758E4B1B6803F48073002B18D18B4B7D
:1027BC001B688A4A43F480731360FFF7B9FB3861D6
:1027CC0008E0FFF7B5FB02463B69D31A642B01D92D
:1027DC000323FDE0814B1B6803F48073002BF0D0C6
:1027EC007B68DB68012B06D17B4B1B6A7A4A43F072
:1027FC00010313622DE07B68DB68002B0CD1764B58
:10280C001B6A754A23F001031362734B1B6A724AED
:10281C0023F0040313621CE07B68DB68052B0CD1EE
:10282C006D4B1B6A6C4A43F0040313626A4B1B6AC0
:10283C00694A43F0010313620BE0674B1B6A664A5B
:10284C0023F001031362644B1B6A634A23F00403F5
:10285C0013627B68DB68002B15D0FFF769FB3861CE
:10286C000AE0FFF765FB02463B69D31A41F2883256
:10287C00934201D90323ABE0574B1B6A03F00203CD
:10288C00002BEED014E0FFF753FB38610AE0FFF7A2
:10289C004FFB02463B69D31A41F28832934201D96D
:1028AC00032395E04C4B1B6A03F00203002BEED183
:1028BC00FB7D012B05D1484BDB69474A23F0805344
:1028CC00D3617B68DB69002B00F08180424B5B6835
:1028DC0003F00C03082B61D07B68DB69022B46D11B
:1028EC003F4B00221A60FFF723FB386108E0FFF72B
:1028FC001FFB02463B69D31A022B01D9032367E065
:10290C00354B1B6803F00073002BF0D17B681B6AFE
:10291C00B3F5803F08D1304B5B6823F400327B6801
:10292C009B682D4913434B602B4B5B6823F474124B
:10293C007B68196A7B685B6A0B43274913434B60BE
:10294C00274B01221A60FFF7F3FA386108E0FFF712
:10295C00EFFA02463B69D31A022B01D9032337E065
:10296C001D4B1B6803F00073002BF0D02FE01C4BA9
:10297C0000221A60FFF7DCFA386108E0FFF7D8FA9A
:10298C0002463B69D31A022B01D9032320E0124BD8
:10299C001B6803F00073002BF0D118E07B68DB6937
:1029AC00012B01D1012313E00B4B5B68FB60FB682F
:1029BC0003F480327B681B6A9A4206D1FB6803F4ED
:1029CC0070127B685B6A9A4201D0012300E00023FD
:1029DC0018461837BD4680BD0010024000700040FC
:1029EC006000424280B584B000AF786039607B688B
:1029FC00002B01D10123D0E06A4B1B6803F00703C5
:102A0C003A689A4210D9674B1B6823F00702654954
:102A1C003B6813430B60634B1B6803F007033A6876
:102A2C009A4201D00123B8E07B681B6803F00203D3
:102A3C00002B20D07B681B6803F00403002B05D00F
:102A4C00594B5B68584A43F4E06353607B681B68DE
:102A5C0003F00803002B05D0534B5B68524A43F438
:102A6C0060535360504B5B6823F0F0027B689B68AB
:102A7C004D4913434B607B681B6803F00103002B2B
:102A8C0040D07B685B68012B07D1474B1B6803F474
:102A9C000033002B15D101237FE07B685B68022B90
:102AAC0007D1414B1B6803F00073002B09D10123A4
:102ABC0073E03D4B1B6803F00203002B01D1012393
:102ACC006BE0394B5B6823F003027B685B6836492B
:102ADC0013434B60FFF72CFAF8600AE0FFF728FA73
:102AEC000246FB68D31A41F28832934201D9032380
:102AFC0053E02D4B5B6803F00C027B685B689B001A
:102B0C009A42EBD1274B1B6803F007033A689A42B1
:102B1C0010D2244B1B6823F0070222493B68134355
:102B2C000B60204B1B6803F007033A689A4201D0F4
:102B3C00012332E07B681B6803F00403002B08D0F0
:102B4C00194B5B6823F4E0627B68DB68164913431E
:102B5C004B607B681B6803F00803002B09D0124BF9
:102B6C005B6823F460527B681B69DB000E491343DE
:102B7C004B6000F021F802460B4B5B681B0903F01D
:102B8C000F030A49CB5C22FA03F3094A1360094B81
:102B9C001B681846FFF78AF9002318461037BD4604
:102BAC0080BD00BF0020024000100240D03400085D
:102BBC00800000208400002080B487B000AF002388
:102BCC00FB600023BB6000237B6100237B60002340
:102BDC003B611E4B5B68FB60FB6803F00C03042B32
:102BEC0002D0082B03D027E0194B3B6127E0FB6890
:102BFC009B0C03F00F03174AD35C7B60FB6803F458
:102C0C008033002B10D0114B5B685B0C03F001037D
:102C1C00114AD35CBB607B680D4A02FB03F2BB68B4
:102C2C00B2FBF3F37B6104E07B680C4A02FB03F319
:102C3C007B617B693B6102E0054B3B6100BF3B69FB
:102C4C0018461C37BD4680BC704700BF00100240C0
:102C5C0000127A00E0340008F034000800093D004E
:102C6C0080B485B000AF78600A4B1B680A4AA2FB9F
:102C7C0003235B0A7A6802FB03F3FB6000BFFB686B
:102C8C005A1EFA60002BF9D100BF00BF1437BD46A5
:102C9C0080BC704780000020D34D621080B582B09C
:102CAC0000AF78607B68002B01D1012341E07B6889
:102CBC0093F83D30DBB2002B06D17B68002283F801
:102CCC003C207868FEF778FF7B68022283F83D2071
:102CDC007B681A687B6804331946104600F056FA74
:102CEC007B68012283F846207B68012283F83E2012
:102CFC007B68012283F83F207B68012283F8402007
:102D0C007B68012283F841207B68012283F84220F2
:102D1C007B68012283F843207B68012283F84420DE
:102D2C007B68012283F845207B68012283F83D20D3
:102D3C00002318460837BD4680BD000080B485B01E
:102D4C0000AF78607B6893F83D30DBB2012B01D08B
:102D5C00012335E07B68022283F83D207B681B68E9
:102D6C00DA687B681B6842F00102DA607B681B68DA
:102D7C00164A934209D07B681B68B3F1804F04D08C
:102D8C007B681B68124A934211D17B681B689B6855
:102D9C0003F00703FB60FB68062B10D07B681B68F5
:102DAC001A687B681B6842F001021A6007E07B68B6
:102DBC001B681A687B681B6842F001021A600023CA
:102DCC0018461437BD4680BC704700BF002C01402C
:102DDC000004004080B584B000AF78607B681B684D
:102DEC00DB68FB607B681B681B69BB60BB6803F01E
:102DFC000203002B20D0FB6803F00203002B1BD036
:102E0C007B681B686FF002021A617B6801221A77DB
:102E1C007B681B689B6903F00303002B03D0786865
:102E2C0000F098F905E0786800F08BF9786800F00C
:102E3C009AF97B6800221A77BB6803F00403002B15
:102E4C0020D0FB6803F00403002B1BD07B681B68AD
:102E5C006FF004021A617B6802221A777B681B6888
:102E6C009B6903F44073002B03D0786800F072F96F
:102E7C0005E0786800F065F9786800F074F97B6813
:102E8C0000221A77BB6803F00803002B20D0FB68E4
:102E9C0003F00803002B1BD07B681B686FF0080243
:102EAC001A617B6804221A777B681B68DB6903F064
:102EBC000303002B03D0786800F04CF905E0786828
:102ECC0000F03FF9786800F04EF97B6800221A7721
:102EDC00BB6803F01003002B20D0FB6803F0100339
:102EEC00002B1BD07B681B686FF010021A617B688B
:102EFC0008221A777B681B68DB6903F44073002B8C
:102F0C0003D0786800F026F905E0786800F019F92C
:102F1C00786800F028F97B6800221A77BB6803F008
:102F2C000103002B0CD0FB6803F00103002B07D02E
:102F3C007B681B686FF001021A617868FEF7C8FAAB
:102F4C00BB6803F08003002B0CD0FB6803F08003FC
:102F5C00002B07D07B681B686FF080021A617868C1
:102F6C0000F06FFABB6803F04003002B0CD0FB6839
:102F7C0003F04003002B07D07B681B686FF0400206
:102F8C001A61786800F0F8F8BB6803F02003002B96
:102F9C000CD0FB6803F02003002B07D07B681B6868
:102FAC006FF020021A61786800F042FA00BF103707
:102FBC00BD4680BD80B584B000AF78603960002319
:102FCC00FB737B6893F83C30012B01D10223B4E0F6
:102FDC007B68012283F83C207B68022283F83D2029
:102FEC007B681B689B68BB60BB6823F07703BB6086
:102FFC00BB6823F47F43BB607B681B68BA689A602C
:10300C003B681B68B3F5005F3ED0B3F5005F00F280
:10301C008780B3F5805F00F08680B3F5805F7FD842
:10302C00702B1AD0702B7BD8602B50D0602B77D89C
:10303C00502B3CD0502B73D8402B58D0402B6FD8F2
:10304C00302B64D0302B6BD8202B60D0202B67D842
:10305C00002B5CD0102B5AD062E07B6818683B6860
:10306C0099683B685A683B68DB6800F06AF97B68D2
:10307C001B689B68BB60BB6843F07703BB607B68D5
:10308C001B68BA689A604FE07B6818683B6899685F
:10309C003B685A683B68DB6800F053F97B681B6837
:1030AC009A687B681B6842F480429A603CE07B68BB
:1030BC0018683B6859683B68DB681A4600F0CAF828
:1030CC007B681B685021184600F021F92CE07B68C6
:1030DC0018683B6859683B68DB681A4600F0E8F8EA
:1030EC007B681B686021184600F011F91CE07B68B6
:1030FC0018683B6859683B68DB681A4600F0AAF808
:10310C007B681B684021184600F001F90CE07B68D5
:10311C001A683B681B681946104600F0F8F803E083
:10312C000123FB7300E000BF7B68012283F83D2084
:10313C007B68002283F83C20FB7B18461037BD4689
:10314C0080BD80B483B000AF786000BF0C37BD4643
:10315C0080BC704780B483B000AF786000BF0C3780
:10316C00BD4680BC704780B483B000AF786000BFB0
:10317C000C37BD4680BC704780B483B000AF78601C
:10318C0000BF0C37BD4680BC7047000080B485B0D2
:10319C0000AF786039607B681B68FB607B682B4AEA
:1031AC00934207D07B68B3F1804F03D07B68284AE9
:1031BC00934208D1FB6823F07003FB603B685B68AB
:1031CC00FA681343FB607B68204A934207D07B6804
:1031DC00B3F1804F03D07B681D4A934208D1FB6842
:1031EC0023F44073FB603B68DB68FA681343FB60B5
:1031FC00FB6823F080023B685B691343FB607B68D0
:10320C00FA681A603B689A687B68DA623B681A68ED
:10321C007B689A627B680D4A934203D13B681A69BA
:10322C007B681A637B6801225A617B681B6903F017
:10323C000103002B05D07B681B6923F001027B681E
:10324C001A6100BF1437BD4680BC7047002C01408A
:10325C000004004080B487B000AFF860B9607A60B9
:10326C00FB681B6A7B61FB681B6A23F00102FB682D
:10327C001A62FB689B693B613B6923F0F0033B617D
:10328C007B681B013A6913433B617B6923F00A039A
:10329C007B617A69BB6813437B61FB683A699A610D
:1032AC00FB687A691A6200BF1C37BD4680BC704748
:1032BC0080B487B000AFF860B9607A60FB681B6AB5
:1032CC007B61FB681B6A23F01002FB681A62FB68C7
:1032DC009B693B613B6923F470433B617B681B0337
:1032EC003A6913433B617B6923F0A0037B61BB68A4
:1032FC001B017A6913437B61FB683A699A61FB682D
:10330C007A691A6200BF1C37BD4680BC704780B416
:10331C0085B000AF786039607B689B68FB60FB68A8
:10332C0023F07003FB603A68FB68134343F0070318
:10333C00FB607B68FA689A6000BF1437BD4680BC9E
:10334C00704780B487B000AFF860B9607A603B60BA
:10335C00FB689B687B617B6923F47F437B613B68E3
:10336C001A027B681A43BB6813437A6913437B6167
:10337C00FB687A699A6000BF1C37BD4680BC7047F9
:10338C0080B485B000AF786039607B6893F83C30CE
:10339C00012B01D1022341E07B68012283F83C2000
:1033AC007B68022283F83D207B681B685B68FB60AE
:1033BC007B681B689B68BB60FB6823F07003FB6039
:1033CC003B681B68FA681343FB607B681B68FA68F0
:1033DC005A607B681B68144A934209D07B681B684F
:1033EC00B3F1804F04D07B681B68104A93420CD118
:1033FC00BB6823F08003BB603B685B68BA6813430F
:10340C00BB607B681B68BA689A607B68012283F892
:10341C003D207B68002283F83C200023184614379B
:10342C00BD4680BC704700BF002C0140000400402A
:10343C0080B483B000AF786000BF0C37BD4680BC51
:10344C00704780B483B000AF786000BF0C37BD46C6
:10345C0080BC704770B500260C4D0D4C641BA4103D
:10346C00A64209D100F022F800260A4D0A4C641B32
:10347C00A410A64205D170BD55F8043B98470136FF
:10348C00EEE755F8043B98470136F2E7F4340008B0
:10349C00F4340008F4340008F834000803460244FD
:1034AC00934200D1704703F8011BF9E7F8B500BF50
:1034BC00F8BC08BC9E467047F8B500BFF8BC08BC09
:0434CC009E46704761
:1034D00000000000000000000102030406070809C4
:1034E00002030405060708090A0B0C0D0E0F101045
:0434F00001020000D5
:0434F400310100089A
:0434F8000D010008BA
:1034FC00C8000000000000000000000000000000F8
:10350C0001000000010000000100000001000000AB
:10351C00010000000100000001000000010000009B
:10352C00010000000100000001000000010000008B
:10353C00010000000100000001000000010000007B
:10354C00000801400008014000080140000801404B
:10355C00400080000001004001000000010000005C
:10356C000100000088130000D0070000B80B000019
:0C357C0000127A001000000001000000A6
:0400000508001E4190
:00000001FF
